{
  "_format": "hh-sol-artifact-1",
  "contractName": "LabNFT",
  "sourceName": "contracts/LabNFT.sol",
  "abi": [
    {
      "inputs": [],
      "stateMutability": "nonpayable",
      "type": "constructor"
    },
    {
      "anonymous": false,
      "inputs": [
        {
          "indexed": true,
          "internalType": "address",
          "name": "owner",
          "type": "address"
        },
        {
          "indexed": true,
          "internalType": "address",
          "name": "approved",
          "type": "address"
        },
        {
          "indexed": true,
          "internalType": "uint256",
          "name": "tokenId",
          "type": "uint256"
        }
      ],
      "name": "Approval",
      "type": "event"
    },
    {
      "anonymous": false,
      "inputs": [
        {
          "indexed": true,
          "internalType": "address",
          "name": "owner",
          "type": "address"
        },
        {
          "indexed": true,
          "internalType": "address",
          "name": "operator",
          "type": "address"
        },
        {
          "indexed": false,
          "internalType": "bool",
          "name": "approved",
          "type": "bool"
        }
      ],
      "name": "ApprovalForAll",
      "type": "event"
    },
    {
      "anonymous": false,
      "inputs": [
        {
          "indexed": true,
          "internalType": "address",
          "name": "from",
          "type": "address"
        },
        {
          "indexed": true,
          "internalType": "address",
          "name": "to",
          "type": "address"
        },
        {
          "indexed": true,
          "internalType": "uint256",
          "name": "tokenId",
          "type": "uint256"
        }
      ],
      "name": "Transfer",
      "type": "event"
    },
    {
      "anonymous": false,
      "inputs": [
        {
          "indexed": false,
          "internalType": "address",
          "name": "sender",
          "type": "address"
        },
        {
          "indexed": false,
          "internalType": "uint256",
          "name": "tokenId",
          "type": "uint256"
        }
      ],
      "name": "freshMint",
      "type": "event"
    },
    {
      "inputs": [
        {
          "internalType": "address",
          "name": "to",
          "type": "address"
        },
        {
          "internalType": "uint256",
          "name": "tokenId",
          "type": "uint256"
        }
      ],
      "name": "approve",
      "outputs": [],
      "stateMutability": "nonpayable",
      "type": "function"
    },
    {
      "inputs": [
        {
          "internalType": "address",
          "name": "owner",
          "type": "address"
        }
      ],
      "name": "balanceOf",
      "outputs": [
        {
          "internalType": "uint256",
          "name": "",
          "type": "uint256"
        }
      ],
      "stateMutability": "view",
      "type": "function"
    },
    {
      "inputs": [
        {
          "internalType": "uint256",
          "name": "newItemId",
          "type": "uint256"
        }
      ],
      "name": "dataNFT",
      "outputs": [
        {
          "internalType": "string",
          "name": "",
          "type": "string"
        }
      ],
      "stateMutability": "view",
      "type": "function"
    },
    {
      "inputs": [
        {
          "internalType": "uint256",
          "name": "tokenId",
          "type": "uint256"
        }
      ],
      "name": "getApproved",
      "outputs": [
        {
          "internalType": "address",
          "name": "",
          "type": "address"
        }
      ],
      "stateMutability": "view",
      "type": "function"
    },
    {
      "inputs": [
        {
          "internalType": "address",
          "name": "owner",
          "type": "address"
        },
        {
          "internalType": "address",
          "name": "operator",
          "type": "address"
        }
      ],
      "name": "isApprovedForAll",
      "outputs": [
        {
          "internalType": "bool",
          "name": "",
          "type": "bool"
        }
      ],
      "stateMutability": "view",
      "type": "function"
    },
    {
      "inputs": [
        {
          "internalType": "uint256",
          "name": "num",
          "type": "uint256"
        }
      ],
      "name": "mintNFT",
      "outputs": [],
      "stateMutability": "payable",
      "type": "function"
    },
    {
      "inputs": [],
      "name": "name",
      "outputs": [
        {
          "internalType": "string",
          "name": "",
          "type": "string"
        }
      ],
      "stateMutability": "view",
      "type": "function"
    },
    {
      "inputs": [
        {
          "internalType": "uint256",
          "name": "tokenId",
          "type": "uint256"
        }
      ],
      "name": "ownerOf",
      "outputs": [
        {
          "internalType": "address",
          "name": "",
          "type": "address"
        }
      ],
      "stateMutability": "view",
      "type": "function"
    },
    {
      "inputs": [
        {
          "internalType": "uint256",
          "name": "tokenId",
          "type": "uint256"
        }
      ],
      "name": "pickRandomColor",
      "outputs": [
        {
          "internalType": "string",
          "name": "",
          "type": "string"
        }
      ],
      "stateMutability": "view",
      "type": "function"
    },
    {
      "inputs": [
        {
          "internalType": "uint256",
          "name": "tokenId",
          "type": "uint256"
        }
      ],
      "name": "pickRandomFifthAttr",
      "outputs": [
        {
          "internalType": "string",
          "name": "",
          "type": "string"
        }
      ],
      "stateMutability": "view",
      "type": "function"
    },
    {
      "inputs": [
        {
          "internalType": "uint256",
          "name": "tokenId",
          "type": "uint256"
        }
      ],
      "name": "pickRandomFirstAttr",
      "outputs": [
        {
          "internalType": "string",
          "name": "",
          "type": "string"
        }
      ],
      "stateMutability": "view",
      "type": "function"
    },
    {
      "inputs": [
        {
          "internalType": "uint256",
          "name": "tokenId",
          "type": "uint256"
        }
      ],
      "name": "pickRandomFourthAttr",
      "outputs": [
        {
          "internalType": "string",
          "name": "",
          "type": "string"
        }
      ],
      "stateMutability": "view",
      "type": "function"
    },
    {
      "inputs": [
        {
          "internalType": "uint256",
          "name": "tokenId",
          "type": "uint256"
        }
      ],
      "name": "pickRandomSecondAttr",
      "outputs": [
        {
          "internalType": "string",
          "name": "",
          "type": "string"
        }
      ],
      "stateMutability": "view",
      "type": "function"
    },
    {
      "inputs": [
        {
          "internalType": "uint256",
          "name": "tokenId",
          "type": "uint256"
        }
      ],
      "name": "pickRandomSeventhAttr",
      "outputs": [
        {
          "internalType": "string",
          "name": "",
          "type": "string"
        }
      ],
      "stateMutability": "view",
      "type": "function"
    },
    {
      "inputs": [
        {
          "internalType": "uint256",
          "name": "tokenId",
          "type": "uint256"
        }
      ],
      "name": "pickRandomSixthAttr",
      "outputs": [
        {
          "internalType": "string",
          "name": "",
          "type": "string"
        }
      ],
      "stateMutability": "view",
      "type": "function"
    },
    {
      "inputs": [
        {
          "internalType": "uint256",
          "name": "tokenId",
          "type": "uint256"
        }
      ],
      "name": "pickRandomThirdAttr",
      "outputs": [
        {
          "internalType": "string",
          "name": "",
          "type": "string"
        }
      ],
      "stateMutability": "view",
      "type": "function"
    },
    {
      "inputs": [
        {
          "internalType": "address",
          "name": "from",
          "type": "address"
        },
        {
          "internalType": "address",
          "name": "to",
          "type": "address"
        },
        {
          "internalType": "uint256",
          "name": "tokenId",
          "type": "uint256"
        }
      ],
      "name": "safeTransferFrom",
      "outputs": [],
      "stateMutability": "nonpayable",
      "type": "function"
    },
    {
      "inputs": [
        {
          "internalType": "address",
          "name": "from",
          "type": "address"
        },
        {
          "internalType": "address",
          "name": "to",
          "type": "address"
        },
        {
          "internalType": "uint256",
          "name": "tokenId",
          "type": "uint256"
        },
        {
          "internalType": "bytes",
          "name": "_data",
          "type": "bytes"
        }
      ],
      "name": "safeTransferFrom",
      "outputs": [],
      "stateMutability": "nonpayable",
      "type": "function"
    },
    {
      "inputs": [
        {
          "internalType": "address",
          "name": "operator",
          "type": "address"
        },
        {
          "internalType": "bool",
          "name": "approved",
          "type": "bool"
        }
      ],
      "name": "setApprovalForAll",
      "outputs": [],
      "stateMutability": "nonpayable",
      "type": "function"
    },
    {
      "inputs": [
        {
          "internalType": "bytes4",
          "name": "interfaceId",
          "type": "bytes4"
        }
      ],
      "name": "supportsInterface",
      "outputs": [
        {
          "internalType": "bool",
          "name": "",
          "type": "bool"
        }
      ],
      "stateMutability": "view",
      "type": "function"
    },
    {
      "inputs": [],
      "name": "symbol",
      "outputs": [
        {
          "internalType": "string",
          "name": "",
          "type": "string"
        }
      ],
      "stateMutability": "view",
      "type": "function"
    },
    {
      "inputs": [
        {
          "internalType": "uint256",
          "name": "index",
          "type": "uint256"
        }
      ],
      "name": "tokenByIndex",
      "outputs": [
        {
          "internalType": "uint256",
          "name": "",
          "type": "uint256"
        }
      ],
      "stateMutability": "view",
      "type": "function"
    },
    {
      "inputs": [
        {
          "internalType": "address",
          "name": "owner",
          "type": "address"
        },
        {
          "internalType": "uint256",
          "name": "index",
          "type": "uint256"
        }
      ],
      "name": "tokenOfOwnerByIndex",
      "outputs": [
        {
          "internalType": "uint256",
          "name": "",
          "type": "uint256"
        }
      ],
      "stateMutability": "view",
      "type": "function"
    },
    {
      "inputs": [
        {
          "internalType": "uint256",
          "name": "tokenId",
          "type": "uint256"
        }
      ],
      "name": "tokenURI",
      "outputs": [
        {
          "internalType": "string",
          "name": "",
          "type": "string"
        }
      ],
      "stateMutability": "view",
      "type": "function"
    },
    {
      "inputs": [],
      "name": "totalSupply",
      "outputs": [
        {
          "internalType": "uint256",
          "name": "",
          "type": "uint256"
        }
      ],
      "stateMutability": "view",
      "type": "function"
    },
    {
      "inputs": [
        {
          "internalType": "address",
          "name": "from",
          "type": "address"
        },
        {
          "internalType": "address",
          "name": "to",
          "type": "address"
        },
        {
          "internalType": "uint256",
          "name": "tokenId",
          "type": "uint256"
        }
      ],
      "name": "transferFrom",
      "outputs": [],
      "stateMutability": "nonpayable",
      "type": "function"
    }
  ],
  "bytecode": "0x60806040526040518060a00160405280607c81526020016200a595607c9139600c90805190602001906200003592919062002356565b5060405180610100016040528060d1815260200162007d2360d19139600d90805190602001906200006892919062002356565b5060405180610de00160405280610dab815260200162007df4610dab9139600e90805190602001906200009d92919062002356565b5060405180611a2001604052806119f6815260200162008b9f6119f69139600f9080519060200190620000d292919062002356565b50604051806101e001604052806040518060400160405280600481526020017ff09f8c840000000000000000000000000000000000000000000000000000000081525081526020016040518060400160405280600481526020017ff09f8c850000000000000000000000000000000000000000000000000000000081525081526020016040518060400160405280600481526020017ff09f8c830000000000000000000000000000000000000000000000000000000081525081526020016040518060400160405280600481526020017ff09f8c810000000000000000000000000000000000000000000000000000000081525081526020016040518060400160405280600481526020017ff09f8c860000000000000000000000000000000000000000000000000000000081525081526020016040518060400160405280600781526020017ff09f8f99efb88f0000000000000000000000000000000000000000000000000081525081526020016040518060400160405280600481526020017ff09f8c870000000000000000000000000000000000000000000000000000000081525081526020016040518060400160405280600481526020017ff09f8c8c0000000000000000000000000000000000000000000000000000000081525081526020016040518060400160405280600481526020017ff09f8c880000000000000000000000000000000000000000000000000000000081525081526020016040518060400160405280600481526020017ff09f8c840000000000000000000000000000000000000000000000000000000081525081526020016040518060400160405280600481526020017ff09f8c850000000000000000000000000000000000000000000000000000000081525081526020016040518060400160405280600481526020017ff09f8c830000000000000000000000000000000000000000000000000000000081525081526020016040518060400160405280600481526020017ff09f8c810000000000000000000000000000000000000000000000000000000081525081526020016040518060400160405280600481526020017ff09f8c8600000000000000000000000000000000000000000000000000000000815250815260200160405180602001604052806000815250815250601090600f6200043e929190620023e7565b50604051806101e001604052806040518060400160405280600781526020017ff09f8f94efb88f0000000000000000000000000000000000000000000000000081525081526020016040518060400160405280600781526020017ff09f8f95efb88f0000000000000000000000000000000000000000000000000081525081526020016040518060400160405280600781526020017ff09f8f96efb88f0000000000000000000000000000000000000000000000000081525081526020016040518060400160405280600781526020017ff09f8f98efb88f0000000000000000000000000000000000000000000000000081525081526020016040518060400160405280600781526020017ff09f8f9cefb88f0000000000000000000000000000000000000000000000000081525081526020016040518060400160405280600781526020017ff09f8f9defb88f0000000000000000000000000000000000000000000000000081525081526020016040518060400160405280600381526020017fe29b84000000000000000000000000000000000000000000000000000000000081525081526020016040518060400160405280600781526020017ff09f8f94efb88f0000000000000000000000000000000000000000000000000081525081526020016040518060400160405280600781526020017ff09f8f95efb88f0000000000000000000000000000000000000000000000000081525081526020016040518060400160405280600781526020017ff09f8f98efb88f0000000000000000000000000000000000000000000000000081525081526020016040518060400160405280600781526020017ff09f8f9cefb88f0000000000000000000000000000000000000000000000000081525081526020016040518060400160405280600781526020017ff09f8f94efb88f0000000000000000000000000000000000000000000000000081525081526020016040518060400160405280600781526020017ff09f8f95efb88f0000000000000000000000000000000000000000000000000081525081526020016040518060400160405280600781526020017ff09f8f98efb88f0000000000000000000000000000000000000000000000000081525081526020016040518060400160405280600781526020017ff09f8f9cefb88f00000000000000000000000000000000000000000000000000815250815250601190600f620007d0929190620023e7565b50604051806101e001604052806040518060400160405280600481526020017ff09f8cb10000000000000000000000000000000000000000000000000000000081525081526020016040518060400160405280600481526020017ff09f8cb20000000000000000000000000000000000000000000000000000000081525081526020016040518060400160405280600481526020017ff09f8cb30000000000000000000000000000000000000000000000000000000081525081526020016040518060400160405280600481526020017ff09f8cb40000000000000000000000000000000000000000000000000000000081525081526020016040518060400160405280600481526020017ff09f8cb50000000000000000000000000000000000000000000000000000000081525081526020016040518060400160405280600481526020017ff09f8cb70000000000000000000000000000000000000000000000000000000081525081526020016040518060400160405280600481526020017ff09f8cb90000000000000000000000000000000000000000000000000000000081525081526020016040518060400160405280600481526020017ff09f8cbb0000000000000000000000000000000000000000000000000000000081525081526020016040518060400160405280600481526020017ff09f8cbc0000000000000000000000000000000000000000000000000000000081525081526020016040518060400160405280600481526020017ff09f8cbd0000000000000000000000000000000000000000000000000000000081525081526020016040518060400160405280600481526020017ff09f8cbe0000000000000000000000000000000000000000000000000000000081525081526020016040518060400160405280600481526020017ff09f8cbf00000000000000000000000000000000000000000000000000000000815250815260200160405180602001604052806000815250815260200160405180602001604052806000815250815260200160405180602001604052806000815250815250601290600f62000af0929190620023e7565b50604051806101e001604052806040518060400160405280600481526020017ff09f8c800000000000000000000000000000000000000000000000000000000081525081526020016040518060400160405280600481526020017ff09f8c890000000000000000000000000000000000000000000000000000000081525081526020016040518060400160405280600481526020017ff09f8c8b0000000000000000000000000000000000000000000000000000000081525081526020016040518060400160405280600481526020017ff09f8fb00000000000000000000000000000000000000000000000000000000081525081526020016040518060400160405280600481526020017ff09f8fa00000000000000000000000000000000000000000000000000000000081525081526020016040518060400160405280600681526020017fe29baaefb88f000000000000000000000000000000000000000000000000000081525081526020016040518060400160405280600681526020017fe29bb3efb88f000000000000000000000000000000000000000000000000000081525081526020016040518060400160405280600681526020017fe29a93efb88f000000000000000000000000000000000000000000000000000081525081526020016040518060400160405280600481526020017ff09f8fa50000000000000000000000000000000000000000000000000000000081525081526020016040518060400160405280600681526020017fe29bbaefb88f000000000000000000000000000000000000000000000000000081525081526020016040518060400160405280600781526020017ff09f8f9befb88f00000000000000000000000000000000000000000000000000815250815260200160405180602001604052806000815250815260200160405180602001604052806000815250815260200160405180602001604052806000815250815260200160405180602001604052806000815250815250601390600f62000dea929190620023e7565b506040518061020001604052806040518060400160405280600681526020017fe29a9cefb88f000000000000000000000000000000000000000000000000000081525081526020016040518060400160405280600681526020017fe29a96efb88f000000000000000000000000000000000000000000000000000081525081526020016040518060400160405280600681526020017fe29a97efb88f000000000000000000000000000000000000000000000000000081525081526020016040518060400160405280600681526020017fe29a99efb88f000000000000000000000000000000000000000000000000000081525081526020016040518060400160405280600681526020017fe29a9befb88f000000000000000000000000000000000000000000000000000081525081526020016040518060400160405280600681526020017fe29aa0efb88f000000000000000000000000000000000000000000000000000081525081526020016040518060400160405280600681526020017fe29aa1efb88f000000000000000000000000000000000000000000000000000081525081526020016040518060400160405280600681526020017fe29ab0efb88f000000000000000000000000000000000000000000000000000081525081526020016040518060400160405280600681526020017fe29a95efb88f00000000000000000000000000000000000000000000000000008152508152602001604051806020016040528060008152508152602001604051806020016040528060008152508152602001604051806020016040528060008152508152602001604051806020016040528060008152508152602001604051806020016040528060008152508152602001604051806020016040528060008152508152602001604051806020016040528060008152508152506014906010620010ad9291906200244e565b506040518061020001604052806040518060400160405280600681526020017fe29a94efb88f000000000000000000000000000000000000000000000000000081525081526020016040518060400160405280600681526020017fe29b8fefb88f000000000000000000000000000000000000000000000000000081525081526020016040518060400160405280600681526020017fe29a92efb88f000000000000000000000000000000000000000000000000000081525081526020016040518060400160405280600681526020017fe299a8efb88f000000000000000000000000000000000000000000000000000081525081526020016040518060400160405280600681526020017fe299bbefb88f000000000000000000000000000000000000000000000000000081525081526020016040518060400160405280600681526020017fe299bfefb88f000000000000000000000000000000000000000000000000000081525081526020016040518060400160405280600481526020017ff09f8ea60000000000000000000000000000000000000000000000000000000081525081526020016040518060400160405280600681526020017fe29bbdefb88f000000000000000000000000000000000000000000000000000081525081526020016040518060400160405280600681526020017fe29b91efb88f00000000000000000000000000000000000000000000000000008152508152602001604051806020016040528060008152508152602001604051806020016040528060008152508152602001604051806020016040528060008152508152602001604051806020016040528060008152508152602001604051806020016040528060008152508152602001604051806020016040528060008152508152602001604051806020016040528060008152508152506015906010620013709291906200244e565b506040518061020001604052806040518060400160405280600681526020017fe29b93efb88f000000000000000000000000000000000000000000000000000081525081526020016040518060400160405280600681526020017fe299beefb88f000000000000000000000000000000000000000000000000000081525081526020016040518060400160405280600481526020017ff09f91bd0000000000000000000000000000000000000000000000000000000081525081526020016040518060400160405280600781526020017ff09f92b0efb88f0000000000000000000000000000000000000000000000000081525081526020016040518060400160405280600681526020017fe298a2efb88f000000000000000000000000000000000000000000000000000081525081526020016040518060400160405280600681526020017fe29884efb88f000000000000000000000000000000000000000000000000000081525081526020016040518060400160405280600681526020017fe298a0efb88f00000000000000000000000000000000000000000000000000008152508152602001604051806020016040528060008152508152602001604051806020016040528060008152508152602001604051806020016040528060008152508152602001604051806020016040528060008152508152602001604051806020016040528060008152508152602001604051806020016040528060008152508152602001604051806020016040528060008152508152602001604051806020016040528060008152508152602001604051806020016040528060008152508152506016906010620015e79291906200244e565b506040518061064001604052806040518060400160405280600781526020017f234646363633330000000000000000000000000000000000000000000000000081525081526020016040518060400160405280600781526020017f234646423339390000000000000000000000000000000000000000000000000081525081526020016040518060400160405280600781526020017f234646333346460000000000000000000000000000000000000000000000000081525081526020016040518060400160405280600781526020017f234646464639390000000000000000000000000000000000000000000000000081525081526020016040518060400160405280600781526020017f233030423345360000000000000000000000000000000000000000000000000081525081526020016040518060400160405280600781526020017f234536423333330000000000000000000000000000000000000000000000000081525081526020016040518060400160405280600781526020017f233333363645360000000000000000000000000000000000000000000000000081525081526020016040518060400160405280600781526020017f233939393936360000000000000000000000000000000000000000000000000081525081526020016040518060400160405280600781526020017f233939464639390000000000000000000000000000000000000000000000000081525081526020016040518060400160405280600781526020017f234233344434440000000000000000000000000000000000000000000000000081525081526020016040518060400160405280600781526020017f233830423330300000000000000000000000000000000000000000000000000081525081526020016040518060400160405280600781526020017f233830393930300000000000000000000000000000000000000000000000000081525081526020016040518060400160405280600781526020017f234536423342330000000000000000000000000000000000000000000000000081525081526020016040518060400160405280600781526020017f233636383042330000000000000000000000000000000000000000000000000081525081526020016040518060400160405280600781526020017f233636393931410000000000000000000000000000000000000000000000000081525081526020016040518060400160405280600781526020017f234646393945360000000000000000000000000000000000000000000000000081525081526020016040518060400160405280600781526020017f234343464631410000000000000000000000000000000000000000000000000081525081526020016040518060400160405280600781526020017f234646314136360000000000000000000000000000000000000000000000000081525081526020016040518060400160405280600781526020017f234536333331410000000000000000000000000000000000000000000000000081525081526020016040518060400160405280600781526020017f233333464643430000000000000000000000000000000000000000000000000081525081526020016040518060400160405280600781526020017f233636393934440000000000000000000000000000000000000000000000000081525081526020016040518060400160405280600781526020017f234233363643430000000000000000000000000000000000000000000000000081525081526020016040518060400160405280600781526020017f233444383030300000000000000000000000000000000000000000000000000081525081526020016040518060400160405280600781526020017f234233333330300000000000000000000000000000000000000000000000000081525081526020016040518060400160405280600781526020017f234343383043430000000000000000000000000000000000000000000000000081525081526020016040518060400160405280600781526020017f233636363634440000000000000000000000000000000000000000000000000081525081526020016040518060400160405280600781526020017f233939314146460000000000000000000000000000000000000000000000000081525081526020016040518060400160405280600781526020017f234536363646460000000000000000000000000000000000000000000000000081525081526020016040518060400160405280600781526020017f233444423346460000000000000000000000000000000000000000000000000081525081526020016040518060400160405280600781526020017f233141423339390000000000000000000000000000000000000000000000000081525081526020016040518060400160405280600781526020017f234536363642330000000000000000000000000000000000000000000000000081525081526020016040518060400160405280600781526020017f233333393931410000000000000000000000000000000000000000000000000081525081526020016040518060400160405280600781526020017f234343393939390000000000000000000000000000000000000000000000000081525081526020016040518060400160405280600781526020017f234233423331410000000000000000000000000000000000000000000000000081525081526020016040518060400160405280600781526020017f233030453638300000000000000000000000000000000000000000000000000081525081526020016040518060400160405280600781526020017f233444383036360000000000000000000000000000000000000000000000000081525081526020016040518060400160405280600781526020017f233830393938300000000000000000000000000000000000000000000000000081525081526020016040518060400160405280600781526020017f234536464638300000000000000000000000000000000000000000000000000081525081526020016040518060400160405280600781526020017f233141464633330000000000000000000000000000000000000000000000000081525081526020016040518060400160405280600781526020017f233939393933330000000000000000000000000000000000000000000000000081525081526020016040518060400160405280600781526020017f234646333338300000000000000000000000000000000000000000000000000081525081526020016040518060400160405280600781526020017f234343434330300000000000000000000000000000000000000000000000000081525081526020016040518060400160405280600781526020017f233636453634440000000000000000000000000000000000000000000000000081525081526020016040518060400160405280600781526020017f233444383043430000000000000000000000000000000000000000000000000081525081526020016040518060400160405280600781526020017f233939303042330000000000000000000000000000000000000000000000000081525081526020016040518060400160405280600781526020017f234536344436360000000000000000000000000000000000000000000000000081525081526020016040518060400160405280600781526020017f233444423338300000000000000000000000000000000000000000000000000081525081526020016040518060400160405280600781526020017f234646344434440000000000000000000000000000000000000000000000000081525081526020016040518060400160405280600781526020017f233939453645360000000000000000000000000000000000000000000000000081525081526020016040518060400160405280600781526020017f233636363646460000000000000000000000000000000000000000000000000081525081525060179060326200218a929190620024b5565b503480156200219857600080fd5b506040518060400160405280601781526020017f4e495453554148202d204c6162204c616e6420506c6f740000000000000000008152506040518060400160405280600781526020017f4c41424c414e440000000000000000000000000000000000000000000000000081525081600090805190602001906200221d92919062002356565b5080600190805190602001906200223692919062002356565b505050620022846040518060400160405280602081526020017f534d4152544552205448414e20594f55522041564552414745204552433732318152506200228a60201b62001b431760201c565b620026d6565b6200232a81604051602401620022a19190620025ea565b6040516020818303038152906040527f41304fac000000000000000000000000000000000000000000000000000000007bffffffffffffffffffffffffffffffffffffffffffffffffffffffff19166020820180517bffffffffffffffffffffffffffffffffffffffffffffffffffffffff83818316178352505050506200232d60201b60201c565b50565b60008151905060006a636f6e736f6c652e6c6f679050602083016000808483855afa5050505050565b828054620023649062002660565b90600052602060002090601f016020900481019282620023885760008555620023d4565b82601f10620023a357805160ff1916838001178555620023d4565b82800160010185558215620023d4579182015b82811115620023d3578251825591602001919060010190620023b6565b5b509050620023e391906200251c565b5090565b8280548282559060005260206000209081019282156200243b579160200282015b828111156200243a5782518290805190602001906200242992919062002356565b509160200191906001019062002408565b5b5090506200244a91906200253b565b5090565b828054828255906000526020600020908101928215620024a2579160200282015b82811115620024a15782518290805190602001906200249092919062002356565b50916020019190600101906200246f565b5b509050620024b191906200253b565b5090565b82805482825590600052602060002090810192821562002509579160200282015b8281111562002508578251829080519060200190620024f792919062002356565b5091602001919060010190620024d6565b5b5090506200251891906200253b565b5090565b5b80821115620025375760008160009055506001016200251d565b5090565b5b808211156200255f576000818162002555919062002563565b506001016200253c565b5090565b508054620025719062002660565b6000825580601f10620025855750620025a6565b601f016020900490600052602060002090810190620025a591906200251c565b5b50565b6000620025b6826200260e565b620025c2818562002619565b9350620025d48185602086016200262a565b620025df81620026c5565b840191505092915050565b60006020820190508181036000830152620026068184620025a9565b905092915050565b600081519050919050565b600082825260208201905092915050565b60005b838110156200264a5780820151818401526020810190506200262d565b838111156200265a576000848401525b50505050565b600060028204905060018216806200267957607f821691505b6020821081141562002690576200268f62002696565b5b50919050565b7f4e487b7100000000000000000000000000000000000000000000000000000000600052602260045260246000fd5b6000601f19601f8301169050919050565b61563d80620026e66000396000f3fe6080604052600436106101815760003560e01c806370a08231116100d1578063c87b56dd1161008a578063d9f4e04811610064578063d9f4e04814610609578063e985e9c514610646578063fb253b3214610683578063fe3b1c37146106c057610181565b8063c87b56dd14610552578063c9ef6caa1461058f578063d00563ec146105cc57610181565b806370a082311461043f578063926427441461047c57806395d89b4114610498578063a22cb465146104c3578063a90d69cc146104ec578063b88d4fde1461052957610181565b80632ef0c8a31161013e5780634f6ccce7116101185780634f6ccce71461034b578063514dc8c6146103885780636352211e146103c5578063689078481461040257610181565b80632ef0c8a3146102a85780632f745c59146102e557806342842e0e1461032257610181565b806301ffc9a71461018657806306fdde03146101c3578063081812fc146101ee578063095ea7b31461022b57806318160ddd1461025457806323b872dd1461027f575b600080fd5b34801561019257600080fd5b506101ad60048036038101906101a89190613685565b6106fd565b6040516101ba9190614217565b60405180910390f35b3480156101cf57600080fd5b506101d861070f565b6040516101e59190614232565b60405180910390f35b3480156101fa57600080fd5b50610215600480360381019061021091906136d7565b6107a1565b6040516102229190614187565b60405180910390f35b34801561023757600080fd5b50610252600480360381019061024d9190613649565b610826565b005b34801561026057600080fd5b5061026961093e565b6040516102769190614532565b60405180910390f35b34801561028b57600080fd5b506102a660048036038101906102a19190613543565b61094b565b005b3480156102b457600080fd5b506102cf60048036038101906102ca91906136d7565b6109ab565b6040516102dc9190614232565b60405180910390f35b3480156102f157600080fd5b5061030c60048036038101906103079190613649565b610ac9565b6040516103199190614532565b60405180910390f35b34801561032e57600080fd5b5061034960048036038101906103449190613543565b610b6e565b005b34801561035757600080fd5b50610372600480360381019061036d91906136d7565b610b8e565b60405161037f9190614532565b60405180910390f35b34801561039457600080fd5b506103af60048036038101906103aa91906136d7565b610c25565b6040516103bc9190614232565b60405180910390f35b3480156103d157600080fd5b506103ec60048036038101906103e791906136d7565b610d43565b6040516103f99190614187565b60405180910390f35b34801561040e57600080fd5b50610429600480360381019061042491906136d7565b610df5565b6040516104369190614232565b60405180910390f35b34801561044b57600080fd5b50610466600480360381019061046191906134de565b610f13565b6040516104739190614532565b60405180910390f35b610496600480360381019061049191906136d7565b610fcb565b005b3480156104a457600080fd5b506104ad611350565b6040516104ba9190614232565b60405180910390f35b3480156104cf57600080fd5b506104ea60048036038101906104e5919061360d565b6113e2565b005b3480156104f857600080fd5b50610513600480360381019061050e91906136d7565b6113f8565b6040516105209190614232565b60405180910390f35b34801561053557600080fd5b50610550600480360381019061054b9190613592565b611516565b005b34801561055e57600080fd5b50610579600480360381019061057491906136d7565b611578565b6040516105869190614232565b60405180910390f35b34801561059b57600080fd5b506105b660048036038101906105b191906136d7565b61158a565b6040516105c39190614232565b60405180910390f35b3480156105d857600080fd5b506105f360048036038101906105ee91906136d7565b6116a8565b6040516106009190614232565b60405180910390f35b34801561061557600080fd5b50610630600480360381019061062b91906136d7565b6117c6565b60405161063d9190614232565b60405180910390f35b34801561065257600080fd5b5061066d60048036038101906106689190613507565b6118e4565b60405161067a9190614217565b60405180910390f35b34801561068f57600080fd5b506106aa60048036038101906106a591906136d7565b611978565b6040516106b79190614232565b60405180910390f35b3480156106cc57600080fd5b506106e760048036038101906106e291906136d7565b611a25565b6040516106f49190614232565b60405180910390f35b600061070882611bdc565b9050919050565b60606000805461071e906147c6565b80601f016020809104026020016040519081016040528092919081815260200182805461074a906147c6565b80156107975780601f1061076c57610100808354040283529160200191610797565b820191906000526020600020905b81548152906001019060200180831161077a57829003601f168201915b5050505050905090565b60006107ac82611c56565b6107eb576040517f08c379a00000000000000000000000000000000000000000000000000000000081526004016107e290614452565b60405180910390fd5b6004600083815260200190815260200160002060009054906101000a900473ffffffffffffffffffffffffffffffffffffffff169050919050565b600061083182610d43565b90508073ffffffffffffffffffffffffffffffffffffffff168373ffffffffffffffffffffffffffffffffffffffff1614156108a2576040517f08c379a000000000000000000000000000000000000000000000000000000000815260040161089990614492565b60405180910390fd5b8073ffffffffffffffffffffffffffffffffffffffff166108c1611cc2565b73ffffffffffffffffffffffffffffffffffffffff1614806108f057506108ef816108ea611cc2565b6118e4565b5b61092f576040517f08c379a000000000000000000000000000000000000000000000000000000000815260040161092690614392565b60405180910390fd5b6109398383611cca565b505050565b6000600880549050905090565b61095c610956611cc2565b82611d83565b61099b576040517f08c379a0000000000000000000000000000000000000000000000000000000008152600401610992906144b2565b60405180910390fd5b6109a6838383611e61565b505050565b606060006109df6109bb846120c8565b6040516020016109cb9190613fc0565b604051602081830303815290604052612275565b9050601180549050816109f2919061487c565b905060118181548110610a2e577f4e487b7100000000000000000000000000000000000000000000000000000000600052603260045260246000fd5b906000526020600020018054610a43906147c6565b80601f0160208091040260200160405190810160405280929190818152602001828054610a6f906147c6565b8015610abc5780601f10610a9157610100808354040283529160200191610abc565b820191906000526020600020905b815481529060010190602001808311610a9f57829003601f168201915b5050505050915050919050565b6000610ad483610f13565b8210610b15576040517f08c379a0000000000000000000000000000000000000000000000000000000008152600401610b0c906142b2565b60405180910390fd5b600660008473ffffffffffffffffffffffffffffffffffffffff1673ffffffffffffffffffffffffffffffffffffffff168152602001908152602001600020600083815260200190815260200160002054905092915050565b610b8983838360405180602001604052806000815250611516565b505050565b6000610b9861093e565b8210610bd9576040517f08c379a0000000000000000000000000000000000000000000000000000000008152600401610bd0906144d2565b60405180910390fd5b60088281548110610c13577f4e487b7100000000000000000000000000000000000000000000000000000000600052603260045260246000fd5b90600052602060002001549050919050565b60606000610c59610c35846120c8565b604051602001610c45919061406e565b604051602081830303815290604052612275565b905060178054905081610c6c919061487c565b905060178181548110610ca8577f4e487b7100000000000000000000000000000000000000000000000000000000600052603260045260246000fd5b906000526020600020018054610cbd906147c6565b80601f0160208091040260200160405190810160405280929190818152602001828054610ce9906147c6565b8015610d365780601f10610d0b57610100808354040283529160200191610d36565b820191906000526020600020905b815481529060010190602001808311610d1957829003601f168201915b5050505050915050919050565b6000806002600084815260200190815260200160002060009054906101000a900473ffffffffffffffffffffffffffffffffffffffff169050600073ffffffffffffffffffffffffffffffffffffffff168173ffffffffffffffffffffffffffffffffffffffff161415610dec576040517f08c379a0000000000000000000000000000000000000000000000000000000008152600401610de3906143d2565b60405180910390fd5b80915050919050565b60606000610e29610e05846120c8565b604051602001610e159190613f5a565b604051602081830303815290604052612275565b905060138054905081610e3c919061487c565b905060138181548110610e78577f4e487b7100000000000000000000000000000000000000000000000000000000600052603260045260246000fd5b906000526020600020018054610e8d906147c6565b80601f0160208091040260200160405190810160405280929190818152602001828054610eb9906147c6565b8015610f065780601f10610edb57610100808354040283529160200191610f06565b820191906000526020600020905b815481529060010190602001808311610ee957829003601f168201915b5050505050915050919050565b60008073ffffffffffffffffffffffffffffffffffffffff168273ffffffffffffffffffffffffffffffffffffffff161415610f84576040517f08c379a0000000000000000000000000000000000000000000000000000000008152600401610f7b906143b2565b60405180910390fd5b600360008373ffffffffffffffffffffffffffffffffffffffff1673ffffffffffffffffffffffffffffffffffffffff168152602001908152602001600020549050919050565b6000610fd561093e565b90506000610fe3600b6122a8565b9050600b8310611028576040517f08c379a000000000000000000000000000000000000000000000000000000000815260040161101f90614512565b60405180910390fd5b6064838361103691906145fb565b10611076576040517f08c379a000000000000000000000000000000000000000000000000000000000815260040161106d90614292565b60405180910390fd5b82662386f26fc100006110899190614682565b3410156110cb576040517f08c379a00000000000000000000000000000000000000000000000000000000081526004016110c2906144f2565b60405180910390fd5b60006110d682611978565b90506000826040516020016110eb9190614004565b6040516020818303038152906040529050600061110784610c25565b90506000600c82600d85600e600f60405160200161112a96959493929190613eec565b60405160208183030381529060405290506111796040518060400160405280601581526020017f0a2d2d2d2d2d2d2d2d2d2d2d2d2d2d2d2d2d2d2d2d0000000000000000000000815250611b43565b61118284611b43565b6111c06040518060400160405280601581526020017f2d2d2d2d2d2d2d2d2d2d2d2d2d2d2d2d2d2d2d2d0a0000000000000000000000815250611b43565b60006111f685856111d0856122b6565b6040516020016111e293929190613ea5565b6040516020818303038152906040526122b6565b905060008160405160200161120b9190614090565b604051602081830303815290604052905061125a6040518060400160405280601581526020017f0a2d2d2d2d2d2d2d2d2d2d2d2d2d2d2d2d2d2d2d2d0000000000000000000000815250611b43565b61126381611b43565b6112a16040518060400160405280601581526020017f2d2d2d2d2d2d2d2d2d2d2d2d2d2d2d2d2d2d2d2d0a0000000000000000000000815250611b43565b60005b89811015611344576112c133828b6112bc91906145fb565b612440565b6112cb888361245e565b6112d5600b6124d2565b6112f86040518060600160405280602581526020016155a36025913989336124e8565b7f33dad80a19f303599f72ed914e5a26292f64cc0f683fdd409cffba48d38c7eee33896040516113299291906141ee565b60405180910390a1808061133c90614829565b9150506112a4565b50505050505050505050565b60606001805461135f906147c6565b80601f016020809104026020016040519081016040528092919081815260200182805461138b906147c6565b80156113d85780601f106113ad576101008083540402835291602001916113d8565b820191906000526020600020905b8154815290600101906020018083116113bb57829003601f168201915b5050505050905090565b6113f46113ed611cc2565b8383612587565b5050565b6060600061142c611408846120c8565b604051602001611418919061402a565b604051602081830303815290604052612275565b90506016805490508161143f919061487c565b90506016818154811061147b577f4e487b7100000000000000000000000000000000000000000000000000000000600052603260045260246000fd5b906000526020600020018054611490906147c6565b80601f01602080910402602001604051908101604052809291908181526020018280546114bc906147c6565b80156115095780601f106114de57610100808354040283529160200191611509565b820191906000526020600020905b8154815290600101906020018083116114ec57829003601f168201915b5050505050915050919050565b611527611521611cc2565b83611d83565b611566576040517f08c379a000000000000000000000000000000000000000000000000000000000815260040161155d906144b2565b60405180910390fd5b611572848484846126f4565b50505050565b606061158382612750565b9050919050565b606060006115be61159a846120c8565b6040516020016115aa9190613f7c565b604051602081830303815290604052612275565b9050601580549050816115d1919061487c565b90506015818154811061160d577f4e487b7100000000000000000000000000000000000000000000000000000000600052603260045260246000fd5b906000526020600020018054611622906147c6565b80601f016020809104026020016040519081016040528092919081815260200182805461164e906147c6565b801561169b5780601f106116705761010080835404028352916020019161169b565b820191906000526020600020905b81548152906001019060200180831161167e57829003601f168201915b5050505050915050919050565b606060006116dc6116b8846120c8565b6040516020016116c8919061404c565b604051602081830303815290604052612275565b9050601080549050816116ef919061487c565b90506010818154811061172b577f4e487b7100000000000000000000000000000000000000000000000000000000600052603260045260246000fd5b906000526020600020018054611740906147c6565b80601f016020809104026020016040519081016040528092919081815260200182805461176c906147c6565b80156117b95780601f1061178e576101008083540402835291602001916117b9565b820191906000526020600020905b81548152906001019060200180831161179c57829003601f168201915b5050505050915050919050565b606060006117fa6117d6846120c8565b6040516020016117e69190613f9e565b604051602081830303815290604052612275565b90506012805490508161180d919061487c565b905060128181548110611849577f4e487b7100000000000000000000000000000000000000000000000000000000600052603260045260246000fd5b90600052602060002001805461185e906147c6565b80601f016020809104026020016040519081016040528092919081815260200182805461188a906147c6565b80156118d75780601f106118ac576101008083540402835291602001916118d7565b820191906000526020600020905b8154815290600101906020018083116118ba57829003601f168201915b5050505050915050919050565b6000600560008473ffffffffffffffffffffffffffffffffffffffff1673ffffffffffffffffffffffffffffffffffffffff16815260200190815260200160002060008373ffffffffffffffffffffffffffffffffffffffff1673ffffffffffffffffffffffffffffffffffffffff16815260200190815260200160002060009054906101000a900460ff16905092915050565b60606000611985836116a8565b90506000611992846109ab565b9050600061199f856117c6565b905060006119ac86610df5565b905060006119b987611a25565b905060006119c68861158a565b905060006119d3896113f8565b905060006119e08a610c25565b905060008189898989898989604051602001611a039897969594939291906140b2565b6040516020818303038152906040529050809950505050505050505050919050565b60606000611a59611a35846120c8565b604051602001611a459190613fe2565b604051602081830303815290604052612275565b905060148054905081611a6c919061487c565b905060148181548110611aa8577f4e487b7100000000000000000000000000000000000000000000000000000000600052603260045260246000fd5b906000526020600020018054611abd906147c6565b80601f0160208091040260200160405190810160405280929190818152602001828054611ae9906147c6565b8015611b365780601f10611b0b57610100808354040283529160200191611b36565b820191906000526020600020905b815481529060010190602001808311611b1957829003601f168201915b5050505050915050919050565b611bd981604051602401611b579190614232565b6040516020818303038152906040527f41304fac000000000000000000000000000000000000000000000000000000007bffffffffffffffffffffffffffffffffffffffffffffffffffffffff19166020820180517bffffffffffffffffffffffffffffffffffffffffffffffffffffffff83818316178352505050506128a2565b50565b60007f780e9d63000000000000000000000000000000000000000000000000000000007bffffffffffffffffffffffffffffffffffffffffffffffffffffffff1916827bffffffffffffffffffffffffffffffffffffffffffffffffffffffff19161480611c4f5750611c4e826128cb565b5b9050919050565b60008073ffffffffffffffffffffffffffffffffffffffff166002600084815260200190815260200160002060009054906101000a900473ffffffffffffffffffffffffffffffffffffffff1673ffffffffffffffffffffffffffffffffffffffff1614159050919050565b600033905090565b816004600083815260200190815260200160002060006101000a81548173ffffffffffffffffffffffffffffffffffffffff021916908373ffffffffffffffffffffffffffffffffffffffff160217905550808273ffffffffffffffffffffffffffffffffffffffff16611d3d83610d43565b73ffffffffffffffffffffffffffffffffffffffff167f8c5be1e5ebec7d5bd14f71427d1e84f3dd0314c0f7b2291e5b200ac8c7c3b92560405160405180910390a45050565b6000611d8e82611c56565b611dcd576040517f08c379a0000000000000000000000000000000000000000000000000000000008152600401611dc490614372565b60405180910390fd5b6000611dd883610d43565b90508073ffffffffffffffffffffffffffffffffffffffff168473ffffffffffffffffffffffffffffffffffffffff161480611e1a5750611e1981856118e4565b5b80611e5857508373ffffffffffffffffffffffffffffffffffffffff16611e40846107a1565b73ffffffffffffffffffffffffffffffffffffffff16145b91505092915050565b8273ffffffffffffffffffffffffffffffffffffffff16611e8182610d43565b73ffffffffffffffffffffffffffffffffffffffff1614611ed7576040517f08c379a0000000000000000000000000000000000000000000000000000000008152600401611ece906142f2565b60405180910390fd5b600073ffffffffffffffffffffffffffffffffffffffff168273ffffffffffffffffffffffffffffffffffffffff161415611f47576040517f08c379a0000000000000000000000000000000000000000000000000000000008152600401611f3e90614332565b60405180910390fd5b611f528383836129ad565b611f5d600082611cca565b6001600360008573ffffffffffffffffffffffffffffffffffffffff1673ffffffffffffffffffffffffffffffffffffffff1681526020019081526020016000206000828254611fad91906146dc565b925050819055506001600360008473ffffffffffffffffffffffffffffffffffffffff1673ffffffffffffffffffffffffffffffffffffffff168152602001908152602001600020600082825461200491906145fb565b92505081905550816002600083815260200190815260200160002060006101000a81548173ffffffffffffffffffffffffffffffffffffffff021916908373ffffffffffffffffffffffffffffffffffffffff160217905550808273ffffffffffffffffffffffffffffffffffffffff168473ffffffffffffffffffffffffffffffffffffffff167fddf252ad1be2c89b69c2b068fc378daa952ba7f163c4a11628f55a4df523b3ef60405160405180910390a46120c38383836129bd565b505050565b60606000821415612110576040518060400160405280600181526020017f30000000000000000000000000000000000000000000000000000000000000008152509050612270565b600082905060005b6000821461214257808061212b90614829565b915050600a8261213b9190614651565b9150612118565b60008167ffffffffffffffff811115612184577f4e487b7100000000000000000000000000000000000000000000000000000000600052604160045260246000fd5b6040519080825280601f01601f1916602001820160405280156121b65781602001600182028036833780820191505090505b5090505b60008514612269576001826121cf91906146dc565b9150600a856121de919061487c565b60306121ea91906145fb565b60f81b818381518110612226577f4e487b7100000000000000000000000000000000000000000000000000000000600052603260045260246000fd5b60200101907effffffffffffffffffffffffffffffffffffffffffffffffffffffffffffff1916908160001a905350600a856122629190614651565b94506121ba565b8093505050505b919050565b6000816040516020016122889190613e6a565b6040516020818303038152906040528051906020012060001c9050919050565b600081600001549050919050565b60606000825114156122d95760405180602001604052806000815250905061243b565b60006040518060600160405280604081526020016155c8604091399050600060036002855161230891906145fb565b6123129190614651565b600461231e9190614682565b67ffffffffffffffff81111561235d577f4e487b7100000000000000000000000000000000000000000000000000000000600052604160045260246000fd5b6040519080825280601f01601f19166020018201604052801561238f5781602001600182028036833780820191505090505b509050600182016020820185865187015b808210156123fb576003820191508151603f8160121c168501518453600184019350603f81600c1c168501518453600184019350603f8160061c168501518453600184019350603f81168501518453600184019350506123a0565b5050600386510660018114612417576002811461242a57612432565b603d6001830353603d6002830353612432565b603d60018303535b50505080925050505b919050565b61245a8282604051806020016040528060008152506129c2565b5050565b61246782611c56565b6124a6576040517f08c379a000000000000000000000000000000000000000000000000000000000815260040161249d906143f2565b60405180910390fd5b80600a600084815260200190815260200160002090805190602001906124cd92919061336a565b505050565b6001816000016000828254019250508190555050565b61258283838360405160240161250093929190614254565b6040516020818303038152906040527fe3849f79000000000000000000000000000000000000000000000000000000007bffffffffffffffffffffffffffffffffffffffffffffffffffffffff19166020820180517bffffffffffffffffffffffffffffffffffffffffffffffffffffffff83818316178352505050506128a2565b505050565b8173ffffffffffffffffffffffffffffffffffffffff168373ffffffffffffffffffffffffffffffffffffffff1614156125f6576040517f08c379a00000000000000000000000000000000000000000000000000000000081526004016125ed90614352565b60405180910390fd5b80600560008573ffffffffffffffffffffffffffffffffffffffff1673ffffffffffffffffffffffffffffffffffffffff16815260200190815260200160002060008473ffffffffffffffffffffffffffffffffffffffff1673ffffffffffffffffffffffffffffffffffffffff16815260200190815260200160002060006101000a81548160ff0219169083151502179055508173ffffffffffffffffffffffffffffffffffffffff168373ffffffffffffffffffffffffffffffffffffffff167f17307eab39ab6107e8899845ad3d59bd9653f200f220920489ca2b5937696c31836040516126e79190614217565b60405180910390a3505050565b6126ff848484611e61565b61270b84848484612a1d565b61274a576040517f08c379a0000000000000000000000000000000000000000000000000000000008152600401612741906142d2565b60405180910390fd5b50505050565b606061275b82611c56565b61279a576040517f08c379a000000000000000000000000000000000000000000000000000000000815260040161279190614432565b60405180910390fd5b6000600a600084815260200190815260200160002080546127ba906147c6565b80601f01602080910402602001604051908101604052809291908181526020018280546127e6906147c6565b80156128335780601f1061280857610100808354040283529160200191612833565b820191906000526020600020905b81548152906001019060200180831161281657829003601f168201915b505050505090506000612844612bb4565b905060008151141561285a57819250505061289d565b60008251111561288f578082604051602001612877929190613e81565b6040516020818303038152906040529250505061289d565b61289884612bcb565b925050505b919050565b60008151905060006a636f6e736f6c652e6c6f679050602083016000808483855afa5050505050565b60007f80ac58cd000000000000000000000000000000000000000000000000000000007bffffffffffffffffffffffffffffffffffffffffffffffffffffffff1916827bffffffffffffffffffffffffffffffffffffffffffffffffffffffff1916148061299657507f5b5e139f000000000000000000000000000000000000000000000000000000007bffffffffffffffffffffffffffffffffffffffffffffffffffffffff1916827bffffffffffffffffffffffffffffffffffffffffffffffffffffffff1916145b806129a657506129a582612c72565b5b9050919050565b6129b8838383612cdc565b505050565b505050565b6129cc8383612df0565b6129d96000848484612a1d565b612a18576040517f08c379a0000000000000000000000000000000000000000000000000000000008152600401612a0f906142d2565b60405180910390fd5b505050565b6000612a3e8473ffffffffffffffffffffffffffffffffffffffff16612fca565b15612ba7578373ffffffffffffffffffffffffffffffffffffffff1663150b7a02612a67611cc2565b8786866040518563ffffffff1660e01b8152600401612a8994939291906141a2565b602060405180830381600087803b158015612aa357600080fd5b505af1925050508015612ad457506040513d601f19601f82011682018060405250810190612ad191906136ae565b60015b612b57573d8060008114612b04576040519150601f19603f3d011682016040523d82523d6000602084013e612b09565b606091505b50600081511415612b4f576040517f08c379a0000000000000000000000000000000000000000000000000000000008152600401612b46906142d2565b60405180910390fd5b805181602001fd5b63150b7a0260e01b7bffffffffffffffffffffffffffffffffffffffffffffffffffffffff1916817bffffffffffffffffffffffffffffffffffffffffffffffffffffffff191614915050612bac565b600190505b949350505050565b606060405180602001604052806000815250905090565b6060612bd682611c56565b612c15576040517f08c379a0000000000000000000000000000000000000000000000000000000008152600401612c0c90614472565b60405180910390fd5b6000612c1f612bb4565b90506000815111612c3f5760405180602001604052806000815250612c6a565b80612c49846120c8565b604051602001612c5a929190613e81565b6040516020818303038152906040525b915050919050565b60007f01ffc9a7000000000000000000000000000000000000000000000000000000007bffffffffffffffffffffffffffffffffffffffffffffffffffffffff1916827bffffffffffffffffffffffffffffffffffffffffffffffffffffffff1916149050919050565b612ce7838383612fed565b600073ffffffffffffffffffffffffffffffffffffffff168373ffffffffffffffffffffffffffffffffffffffff161415612d2a57612d2581612ff2565b612d69565b8173ffffffffffffffffffffffffffffffffffffffff168373ffffffffffffffffffffffffffffffffffffffff1614612d6857612d67838261303b565b5b5b600073ffffffffffffffffffffffffffffffffffffffff168273ffffffffffffffffffffffffffffffffffffffff161415612dac57612da7816131a8565b612deb565b8273ffffffffffffffffffffffffffffffffffffffff168273ffffffffffffffffffffffffffffffffffffffff1614612dea57612de982826132eb565b5b5b505050565b600073ffffffffffffffffffffffffffffffffffffffff168273ffffffffffffffffffffffffffffffffffffffff161415612e60576040517f08c379a0000000000000000000000000000000000000000000000000000000008152600401612e5790614412565b60405180910390fd5b612e6981611c56565b15612ea9576040517f08c379a0000000000000000000000000000000000000000000000000000000008152600401612ea090614312565b60405180910390fd5b612eb5600083836129ad565b6001600360008473ffffffffffffffffffffffffffffffffffffffff1673ffffffffffffffffffffffffffffffffffffffff1681526020019081526020016000206000828254612f0591906145fb565b92505081905550816002600083815260200190815260200160002060006101000a81548173ffffffffffffffffffffffffffffffffffffffff021916908373ffffffffffffffffffffffffffffffffffffffff160217905550808273ffffffffffffffffffffffffffffffffffffffff16600073ffffffffffffffffffffffffffffffffffffffff167fddf252ad1be2c89b69c2b068fc378daa952ba7f163c4a11628f55a4df523b3ef60405160405180910390a4612fc6600083836129bd565b5050565b6000808273ffffffffffffffffffffffffffffffffffffffff163b119050919050565b505050565b6008805490506009600083815260200190815260200160002081905550600881908060018154018082558091505060019003906000526020600020016000909190919091505550565b6000600161304884610f13565b61305291906146dc565b9050600060076000848152602001908152602001600020549050818114613137576000600660008673ffffffffffffffffffffffffffffffffffffffff1673ffffffffffffffffffffffffffffffffffffffff168152602001908152602001600020600084815260200190815260200160002054905080600660008773ffffffffffffffffffffffffffffffffffffffff1673ffffffffffffffffffffffffffffffffffffffff168152602001908152602001600020600084815260200190815260200160002081905550816007600083815260200190815260200160002081905550505b6007600084815260200190815260200160002060009055600660008573ffffffffffffffffffffffffffffffffffffffff1673ffffffffffffffffffffffffffffffffffffffff16815260200190815260200160002060008381526020019081526020016000206000905550505050565b600060016008805490506131bc91906146dc565b9050600060096000848152602001908152602001600020549050600060088381548110613212577f4e487b7100000000000000000000000000000000000000000000000000000000600052603260045260246000fd5b90600052602060002001549050806008838154811061325a577f4e487b7100000000000000000000000000000000000000000000000000000000600052603260045260246000fd5b9060005260206000200181905550816009600083815260200190815260200160002081905550600960008581526020019081526020016000206000905560088054806132cf577f4e487b7100000000000000000000000000000000000000000000000000000000600052603160045260246000fd5b6001900381819060005260206000200160009055905550505050565b60006132f683610f13565b905081600660008573ffffffffffffffffffffffffffffffffffffffff1673ffffffffffffffffffffffffffffffffffffffff168152602001908152602001600020600083815260200190815260200160002081905550806007600084815260200190815260200160002081905550505050565b828054613376906147c6565b90600052602060002090601f01602090048101928261339857600085556133df565b82601f106133b157805160ff19168380011785556133df565b828001600101855582156133df579182015b828111156133de5782518255916020019190600101906133c3565b5b5090506133ec91906133f0565b5090565b5b808211156134095760008160009055506001016133f1565b5090565b600061342061341b84614572565b61454d565b90508281526020810184848401111561343857600080fd5b613443848285614784565b509392505050565b60008135905061345a81615546565b92915050565b60008135905061346f8161555d565b92915050565b60008135905061348481615574565b92915050565b60008151905061349981615574565b92915050565b600082601f8301126134b057600080fd5b81356134c084826020860161340d565b91505092915050565b6000813590506134d88161558b565b92915050565b6000602082840312156134f057600080fd5b60006134fe8482850161344b565b91505092915050565b6000806040838503121561351a57600080fd5b60006135288582860161344b565b92505060206135398582860161344b565b9150509250929050565b60008060006060848603121561355857600080fd5b60006135668682870161344b565b93505060206135778682870161344b565b9250506040613588868287016134c9565b9150509250925092565b600080600080608085870312156135a857600080fd5b60006135b68782880161344b565b94505060206135c78782880161344b565b93505060406135d8878288016134c9565b925050606085013567ffffffffffffffff8111156135f557600080fd5b6136018782880161349f565b91505092959194509250565b6000806040838503121561362057600080fd5b600061362e8582860161344b565b925050602061363f85828601613460565b9150509250929050565b6000806040838503121561365c57600080fd5b600061366a8582860161344b565b925050602061367b858286016134c9565b9150509250929050565b60006020828403121561369757600080fd5b60006136a584828501613475565b91505092915050565b6000602082840312156136c057600080fd5b60006136ce8482850161348a565b91505092915050565b6000602082840312156136e957600080fd5b60006136f7848285016134c9565b91505092915050565b61370981614710565b82525050565b61371881614722565b82525050565b6000613729826145b8565b61373381856145ce565b9350613743818560208601614793565b61374c81614969565b840191505092915050565b6000613762826145c3565b61376c81856145df565b935061377c818560208601614793565b61378581614969565b840191505092915050565b600061379b826145c3565b6137a581856145f0565b93506137b5818560208601614793565b80840191505092915050565b600081546137ce816147c6565b6137d881866145f0565b945060018216600081146137f3576001811461380457613837565b60ff19831686528186019350613837565b61380d856145a3565b60005b8381101561382f57815481890152600182019150602081019050613810565b838801955050505b50505092915050565b600061384d6014836145df565b91506138588261497a565b602082019050919050565b6000613870602b836145f0565b915061387b826149a3565b602b82019050919050565b6000613893602b836145df565b915061389e826149f2565b604082019050919050565b60006138b66032836145df565b91506138c182614a41565b604082019050919050565b60006138d96025836145df565b91506138e482614a90565b604082019050919050565b60006138fc6089836145f0565b915061390782614adf565b608982019050919050565b600061391f600b836145f0565b915061392a82614ba0565b600b82019050919050565b6000613942601c836145df565b915061394d82614bc9565b602082019050919050565b6000613965600a836145f0565b915061397082614bf2565b600a82019050919050565b6000613988600a836145f0565b915061399382614c1b565b600a82019050919050565b60006139ab602c836145f0565b91506139b682614c44565b602c82019050919050565b60006139ce602b836145f0565b91506139d982614c93565b602b82019050919050565b60006139f16024836145df565b91506139fc82614ce2565b604082019050919050565b6000613a146019836145df565b9150613a1f82614d31565b602082019050919050565b6000613a37600b836145f0565b9150613a4282614d5a565b600b82019050919050565b6000613a5a602c836145df565b9150613a6582614d83565b604082019050919050565b6000613a7d602a836145f0565b9150613a8882614dd2565b602a82019050919050565b6000613aa0600a836145f0565b9150613aab82614e21565b600a82019050919050565b6000613ac36038836145df565b9150613ace82614e4a565b604082019050919050565b6000613ae6602c836145f0565b9150613af182614e99565b602c82019050919050565b6000613b09602a836145df565b9150613b1482614ee8565b604082019050919050565b6000613b2c6029836145df565b9150613b3782614f37565b604082019050919050565b6000613b4f602e836145df565b9150613b5a82614f86565b604082019050919050565b6000613b726002836145f0565b9150613b7d82614fd5565b600282019050919050565b6000613b956007836145f0565b9150613ba082614ffe565b600782019050919050565b6000613bb86020836145df565b9150613bc382615027565b602082019050919050565b6000613bdb6031836145df565b9150613be682615050565b604082019050919050565b6000613bfe602c836145df565b9150613c098261509f565b604082019050919050565b6000613c21602f836145df565b9150613c2c826150ee565b604082019050919050565b6000613c44600d836145f0565b9150613c4f8261513d565b600d82019050919050565b6000613c67600c836145f0565b9150613c7282615166565b600c82019050919050565b6000613c8a6021836145df565b9150613c958261518f565b604082019050919050565b6000613cad600a836145f0565b9150613cb8826151de565b600a82019050919050565b6000613cd0600c836145f0565b9150613cdb82615207565b600c82019050919050565b6000613cf3601d836145f0565b9150613cfe82615230565b601d82019050919050565b6000613d166083836145f0565b9150613d2182615259565b608382019050919050565b6000613d396031836145df565b9150613d448261531a565b604082019050919050565b6000613d5c602c836145f0565b9150613d6782615369565b602c82019050919050565b6000613d7f602c836145df565b9150613d8a826153b8565b604082019050919050565b6000613da2602c836145df565b9150613dad82615407565b604082019050919050565b6000613dc5602a836145f0565b9150613dd082615456565b602a82019050919050565b6000613de8601c836145df565b9150613df3826154a5565b602082019050919050565b6000613e0b6006836145f0565b9150613e16826154ce565b600682019050919050565b6000613e2e603d836145f0565b9150613e39826154f7565b603d82019050919050565b613e4d8161477a565b82525050565b613e64613e5f8261477a565b614872565b82525050565b6000613e768284613790565b915081905092915050565b6000613e8d8285613790565b9150613e998284613790565b91508190509392505050565b6000613eb18286613790565b9150613ebd8285613790565b9150613ec8826138ef565b9150613ed48284613790565b9150613edf82613b65565b9150819050949350505050565b6000613ef882896137c1565b9150613f048288613790565b9150613f1082876137c1565b9150613f1c8286613790565b9150613f2782613b88565b9150613f3382856137c1565b9150613f3f82846137c1565b9150613f4a82613dfe565b9150819050979650505050505050565b6000613f6582613912565b9150613f718284613790565b915081905092915050565b6000613f8782613958565b9150613f938284613790565b915081905092915050565b6000613fa98261397b565b9150613fb58284613790565b915081905092915050565b6000613fcb82613a2a565b9150613fd78284613790565b915081905092915050565b6000613fed82613a93565b9150613ff98284613790565b915081905092915050565b600061400f82613c37565b915061401b8284613e53565b60208201915081905092915050565b600061403582613c5a565b91506140418284613790565b915081905092915050565b600061405782613ca0565b91506140638284613790565b915081905092915050565b600061407982613cc3565b91506140858284613790565b915081905092915050565b600061409b82613ce6565b91506140a78284613790565b915081905092915050565b60006140bd82613e21565b91506140c9828b613790565b91506140d482613db8565b91506140e0828a613790565b91506140eb8261399e565b91506140f78289613790565b915061410282613863565b915061410e8288613790565b915061411982613ad9565b91506141258287613790565b915061413082613a70565b915061413c8286613790565b9150614147826139c1565b91506141538285613790565b915061415e82613d4f565b915061416a8284613790565b915061417582613d09565b91508190509998505050505050505050565b600060208201905061419c6000830184613700565b92915050565b60006080820190506141b76000830187613700565b6141c46020830186613700565b6141d16040830185613e44565b81810360608301526141e3818461371e565b905095945050505050565b60006040820190506142036000830185613700565b6142106020830184613e44565b9392505050565b600060208201905061422c600083018461370f565b92915050565b6000602082019050818103600083015261424c8184613757565b905092915050565b6000606082019050818103600083015261426e8186613757565b905061427d6020830185613e44565b61428a6040830184613700565b949350505050565b600060208201905081810360008301526142ab81613840565b9050919050565b600060208201905081810360008301526142cb81613886565b9050919050565b600060208201905081810360008301526142eb816138a9565b9050919050565b6000602082019050818103600083015261430b816138cc565b9050919050565b6000602082019050818103600083015261432b81613935565b9050919050565b6000602082019050818103600083015261434b816139e4565b9050919050565b6000602082019050818103600083015261436b81613a07565b9050919050565b6000602082019050818103600083015261438b81613a4d565b9050919050565b600060208201905081810360008301526143ab81613ab6565b9050919050565b600060208201905081810360008301526143cb81613afc565b9050919050565b600060208201905081810360008301526143eb81613b1f565b9050919050565b6000602082019050818103600083015261440b81613b42565b9050919050565b6000602082019050818103600083015261442b81613bab565b9050919050565b6000602082019050818103600083015261444b81613bce565b9050919050565b6000602082019050818103600083015261446b81613bf1565b9050919050565b6000602082019050818103600083015261448b81613c14565b9050919050565b600060208201905081810360008301526144ab81613c7d565b9050919050565b600060208201905081810360008301526144cb81613d2c565b9050919050565b600060208201905081810360008301526144eb81613d72565b9050919050565b6000602082019050818103600083015261450b81613d95565b9050919050565b6000602082019050818103600083015261452b81613ddb565b9050919050565b60006020820190506145476000830184613e44565b92915050565b6000614557614568565b905061456382826147f8565b919050565b6000604051905090565b600067ffffffffffffffff82111561458d5761458c61493a565b5b61459682614969565b9050602081019050919050565b60008190508160005260206000209050919050565b600081519050919050565b600081519050919050565b600082825260208201905092915050565b600082825260208201905092915050565b600081905092915050565b60006146068261477a565b91506146118361477a565b9250827fffffffffffffffffffffffffffffffffffffffffffffffffffffffffffffffff03821115614646576146456148ad565b5b828201905092915050565b600061465c8261477a565b91506146678361477a565b925082614677576146766148dc565b5b828204905092915050565b600061468d8261477a565b91506146988361477a565b9250817fffffffffffffffffffffffffffffffffffffffffffffffffffffffffffffffff04831182151516156146d1576146d06148ad565b5b828202905092915050565b60006146e78261477a565b91506146f28361477a565b925082821015614705576147046148ad565b5b828203905092915050565b600061471b8261475a565b9050919050565b60008115159050919050565b60007fffffffff0000000000000000000000000000000000000000000000000000000082169050919050565b600073ffffffffffffffffffffffffffffffffffffffff82169050919050565b6000819050919050565b82818337600083830152505050565b60005b838110156147b1578082015181840152602081019050614796565b838111156147c0576000848401525b50505050565b600060028204905060018216806147de57607f821691505b602082108114156147f2576147f161490b565b5b50919050565b61480182614969565b810181811067ffffffffffffffff821117156148205761481f61493a565b5b80604052505050565b60006148348261477a565b91507fffffffffffffffffffffffffffffffffffffffffffffffffffffffffffffffff821415614867576148666148ad565b5b600182019050919050565b6000819050919050565b60006148878261477a565b91506148928361477a565b9250826148a2576148a16148dc565b5b828206905092915050565b7f4e487b7100000000000000000000000000000000000000000000000000000000600052601160045260246000fd5b7f4e487b7100000000000000000000000000000000000000000000000000000000600052601260045260246000fd5b7f4e487b7100000000000000000000000000000000000000000000000000000000600052602260045260246000fd5b7f4e487b7100000000000000000000000000000000000000000000000000000000600052604160045260246000fd5b6000601f19601f8301169050919050565b7f4578636565647320746f6b656e20737570706c79000000000000000000000000600082015250565b7f22207d2c7b202274726169745f7479706522203a2022464f4c49414745222c2060008201527f2276616c756522203a2022000000000000000000000000000000000000000000602082015250565b7f455243373231456e756d657261626c653a206f776e657220696e646578206f7560008201527f74206f6620626f756e6473000000000000000000000000000000000000000000602082015250565b7f4552433732313a207472616e7366657220746f206e6f6e20455243373231526560008201527f63656976657220696d706c656d656e7465720000000000000000000000000000602082015250565b7f4552433732313a207472616e736665722066726f6d20696e636f72726563742060008201527f6f776e6572000000000000000000000000000000000000000000000000000000602082015250565b7f222c20226465736372697074696f6e223a2022412064796e616d6963616c6c7960008201527f2067656e65726174656420616e6420616e696d61746564206d6f76696e67204e60208201527f4654206f662061206c616e64626c6f7820696e2074686520746573747665727360408201527f652e222c2022696d616765223a2022646174613a696d6167652f7376672b786d60608201527f6c3b6261736536342c0000000000000000000000000000000000000000000000608082015250565b7f464f555254485f574f5244000000000000000000000000000000000000000000600082015250565b7f4552433732313a20746f6b656e20616c7265616479206d696e74656400000000600082015250565b7f53495854485f574f524400000000000000000000000000000000000000000000600082015250565b7f54484952445f574f524400000000000000000000000000000000000000000000600082015250565b7f22207d2c7b202274726169745f7479706522203a20224c4f434154494f4e222c60008201527f202276616c756522203a20220000000000000000000000000000000000000000602082015250565b7f22207d2c7b202274726169745f7479706522203a20225554494c495459222c2060008201527f2276616c756522203a2022000000000000000000000000000000000000000000602082015250565b7f4552433732313a207472616e7366657220746f20746865207a65726f2061646460008201527f7265737300000000000000000000000000000000000000000000000000000000602082015250565b7f4552433732313a20617070726f766520746f2063616c6c657200000000000000600082015250565b7f5345434f4e445f574f5244000000000000000000000000000000000000000000600082015250565b7f4552433732313a206f70657261746f7220717565727920666f72206e6f6e657860008201527f697374656e7420746f6b656e0000000000000000000000000000000000000000602082015250565b7f22207d2c7b202274726169745f7479706522203a202253595354454d222c202260008201527f76616c756522203a202200000000000000000000000000000000000000000000602082015250565b7f46494654485f574f524400000000000000000000000000000000000000000000600082015250565b7f4552433732313a20617070726f76652063616c6c6572206973206e6f74206f7760008201527f6e6572206e6f7220617070726f76656420666f7220616c6c0000000000000000602082015250565b7f22207d2c7b202274726169745f7479706522203a20224c414e444d41524b222c60008201527f202276616c756522203a20220000000000000000000000000000000000000000602082015250565b7f4552433732313a2062616c616e636520717565727920666f7220746865207a6560008201527f726f206164647265737300000000000000000000000000000000000000000000602082015250565b7f4552433732313a206f776e657220717565727920666f72206e6f6e657869737460008201527f656e7420746f6b656e0000000000000000000000000000000000000000000000602082015250565b7f45524337323155524953746f726167653a2055524920736574206f66206e6f6e60008201527f6578697374656e7420746f6b656e000000000000000000000000000000000000602082015250565b7f227d000000000000000000000000000000000000000000000000000000000000600082015250565b7f3c2f746578743e00000000000000000000000000000000000000000000000000600082015250565b7f4552433732313a206d696e7420746f20746865207a65726f2061646472657373600082015250565b7f45524337323155524953746f726167653a2055524920717565727920666f722060008201527f6e6f6e6578697374656e7420746f6b656e000000000000000000000000000000602082015250565b7f4552433732313a20617070726f76656420717565727920666f72206e6f6e657860008201527f697374656e7420746f6b656e0000000000000000000000000000000000000000602082015250565b7f4552433732314d657461646174613a2055524920717565727920666f72206e6f60008201527f6e6578697374656e7420746f6b656e0000000000000000000000000000000000602082015250565b7f4c41424c414e4420504c4f542300000000000000000000000000000000000000600082015250565b7f534556454e54485f574f52440000000000000000000000000000000000000000600082015250565b7f4552433732313a20617070726f76616c20746f2063757272656e74206f776e6560008201527f7200000000000000000000000000000000000000000000000000000000000000602082015250565b7f46495253545f574f524400000000000000000000000000000000000000000000600082015250565b7f52414e444f4d5f434f4c4f520000000000000000000000000000000000000000600082015250565b7f646174613a6170706c69636174696f6e2f6a736f6e3b6261736536342c000000600082015250565b7f22207d2c207b202274726169745f7479706522203a2022534b55222c2022766160008201527f6c756522203a20224e4c41422d4c3122207d2c207b22646973706c61795f747960208201527f7065223a20226e756d626572222c202274726169745f74797065223a2022476560408201527f6e65726174696f6e222c20202276616c7565223a20317d205d2c226e616d652260608201527f3a20220000000000000000000000000000000000000000000000000000000000608082015250565b7f4552433732313a207472616e736665722063616c6c6572206973206e6f74206f60008201527f776e6572206e6f7220617070726f766564000000000000000000000000000000602082015250565b7f22207d2c7b202274726169745f7479706522203a2022424c4f434b4d4f44222c60008201527f202276616c756522203a20220000000000000000000000000000000000000000602082015250565b7f455243373231456e756d657261626c653a20676c6f62616c20696e646578206f60008201527f7574206f6620626f756e64730000000000000000000000000000000000000000602082015250565b7f4e6f7420656e6f756768204554482073656e742c20636865636b20707269636560008201527f207468656e2077616c6c65740000000000000000000000000000000000000000602082015250565b7f22207d2c7b202274726169745f7479706522203a2022534b59424f58222c202260008201527f76616c756522203a202200000000000000000000000000000000000000000000602082015250565b7f596f752063616e206d696e742061206d6178696d756d206f6620313000000000600082015250565b7f3c2f7376673e0000000000000000000000000000000000000000000000000000600082015250565b7f7b20226174747269627574657322203a205b207b202274726169745f7479706560008201527f22203a20226261636b67726f756e64222c202276616c756522203a2022000000602082015250565b61554f81614710565b811461555a57600080fd5b50565b61556681614722565b811461557157600080fd5b50565b61557d8161472e565b811461558857600080fd5b50565b6155948161477a565b811461559f57600080fd5b5056fe416e204e465420772f20494420257320686173206265656e206d696e74656420746f2025734142434445464748494a4b4c4d4e4f505152535455565758595a6162636465666768696a6b6c6d6e6f707172737475767778797a303132333435363738392b2fa2646970667358221220c01aee1b824618e84f9d09d0c9c43da375f585ad7c831a54635d4880ee65cc6d64736f6c6343000804003327207374726f6b653d272330303027207374726f6b652d6d697465726c696d69743d2731302720643d274d2d32342e3237332d32342e32343368313836362e31383776313235342e313235482d32342e3237337a272f3e3c7465787420783d273530252720793d273530252720646f6d696e616e742d626173656c696e653d276d6964646c652720746578742d616e63686f723d276d6964646c6527207374796c653d2766696c6c3a236666663b666f6e742d66616d696c793a73657269663b666f6e742d73697a653a3135307078273e3c67207374726f6b653d272330303027207374726f6b652d6d697465726c696d69743d273130273e3c706174682066696c6c3d27234631463246322720643d274d34372e37333420313230352e3838633020362e3632382d352e3337332031322e3030312d31322e3030312031322e3030312d362e36323820302d31322e3030312d352e3337332d31322e3030312d31322e303031563838312e38343763302d362e36323820352e3337332d31322e3030312031322e3030312d31322e30303120362e36323820302031322e30303120352e3337332031322e3030312031322e303031763332342e3033337a273e3c616e696d6174655472616e73666f726d206174747269627574654e616d653d277472616e73666f726d2720617474726962757465547970653d27584d4c2720747970653d277472616e736c61746527206475723d273373272076616c7565733d27302c313230303b302c2d313230303b2720726570656174436f756e743d27696e646566696e697465272f3e3c2f706174683e3c706174682066696c6c3d27234631354132392720643d274d3430342e373720313039312e383638633020362e3632382d352e3337332031322e3030312d31322e3030312031322e3030312d362e36323820302d31322e3030312d352e3337332d31322e3030312d31322e303031563736372e38333663302d362e36323820352e3337332d31322e3030312031322e3030312d31322e30303120362e36323820302031322e30303120352e3337332031322e3030312031322e303031763332342e3033327a273e3c616e696d6174655472616e73666f726d206174747269627574654e616d653d277472616e73666f726d2720617474726962757465547970653d27584d4c2720747970653d277472616e736c61746527206475723d273273272076616c7565733d27302c313230303b302c2d313230303b2720726570656174436f756e743d27696e646566696e697465272f3e3c2f706174683e3c706174682066696c6c3d27234631463246322720643d274d3330382e3736203830362e3834633020362e3632382d352e3337332031322e3030312d31322e3030312031322e3030312d362e36323820302d31322e3030312d352e3337332d31322e3030312d31322e303031563438322e38303763302d362e36323820352e3337332d31322e3030312031322e3030312d31322e30303120362e36323820302031322e30303120352e3337332031322e3030312031322e303031563830362e38347a273e3c616e696d6174655472616e73666f726d206174747269627574654e616d653d277472616e73666f726d2720617474726962757465547970653d27584d4c2720747970653d277472616e736c61746527206475723d273173272076616c7565733d27302c313230303b302c2d313230303b2720726570656174436f756e743d27696e646566696e697465272f3e3c2f706174683e3c706174682066696c6c3d27233030414545462720643d274d3132382e373432203637312e383236633020362e3632382d352e3337332031322e3030312d31322e3030312031322e3030312d362e36323820302d31322e3030312d352e3337332d31322e3030312d31322e303031563334372e37393463302d362e36323820352e3337332d31322e3030312031322e3030312d31322e30303120362e36323820302031322e30303120352e3337332031322e3030312031322e303031763332342e3033327a273e3c616e696d6174655472616e73666f726d206174747269627574654e616d653d277472616e73666f726d2720617474726962757465547970653d27584d4c2720747970653d277472616e736c61746527206475723d27322e3573272076616c7565733d27302c313230303b302c2d313230303b2720726570656174436f756e743d27696e646566696e697465272f3e3c2f706174683e3c706174682066696c6c3d27234631463246322720643d274d3532372e37383220313139392e393833633020342e3931342d352e33373320382e3839372d31322e30303120382e3839372d362e36323820302d31322e3030312d332e3938342d31322e3030312d382e383937563935392e37353263302d342e39313420352e3337332d382e3839372031322e3030312d382e38393720362e36323820302031322e30303120332e3938342031322e30303120382e383937763234302e3233317a273e3c616e696d6174655472616e73666f726d206174747269627574654e616d653d277472616e73666f726d2720617474726962757465547970653d27584d4c2720747970653d277472616e736c61746527206475723d27312e3573272076616c7565733d27302c313230303b302c2d313230303b2720726570656174436f756e743d27696e646566696e697465272f3e3c2f706174683e3c706174682066696c6c3d27234631354132392720643d274d3637312e37393620313133352e313134633020392e3235362d352e3337332031362e37362d31322e3030312031362e37362d362e36323820302d31322e3030312d372e3530342d31322e3030312d31362e3736563638322e35383663302d392e32353620352e3337332d31362e37362031322e3030312d31362e373620362e36323820302031322e30303120372e3530342031322e3030312031362e3736763435322e3532387a273e3c616e696d6174655472616e73666f726d206174747269627574654e616d653d277472616e73666f726d2720617474726962757465547970653d27584d4c2720747970653d277472616e736c61746527206475723d27312e323573272076616c7565733d27302c313230303b302c2d313230303b2720726570656174436f756e743d27696e646566696e697465272f3e3c2f706174683e3c706174682066696c6c3d27234631463246322720643d274d3830302e38303920313236312e3534633020372e3337312d352e3337332031332e3334362d31322e3030312031332e3334362d362e36323820302d31322e3030312d352e3937352d31322e3030312d31332e333436563930312e31393463302d372e33373120352e3337332d31332e3334362031322e3030312d31332e33343620362e36323820302031322e30303120352e3937352031322e3030312031332e333436763336302e3334367a273e3c616e696d6174655472616e73666f726d206174747269627574654e616d653d277472616e73666f726d2720617474726962757465547970653d27584d4c2720747970653d277472616e736c61746527206475723d273373272076616c7565733d27302c313230303b302c2d313230303b2720726570656174436f756e743d27696e646566696e697465272f3e3c2f706174683e3c706174682066696c6c3d27233030414545462720643d274d313236382e383536203539382e353738633020352e3635372d342e30332031302e3234322d392e3030312031302e3234322d342e39373120302d392e3030312d342e3538362d392e3030312d31302e323432563332322e30333363302d352e36353720342e30332d31302e32343220392e3030312d31302e32343220342e393731203020392e30303120342e35383620392e3030312031302e323432763237362e3534357a273e3c616e696d6174655472616e73666f726d206174747269627574654e616d653d277472616e73666f726d2720617474726962757465547970653d27584d4c2720747970653d277472616e736c61746527206475723d273273272076616c7565733d27302c313230303b302c2d313230303b2720726570656174436f756e743d27696e646566696e697465272f3e3c2f706174683e3c706174682066696c6c3d27234631354132392720643d274d313032382e383332203539322e343734633020372e3337312d352e3337332031332e3334362d31322e3030312031332e3334362d362e36323820302d31322e3030312d352e3937352d31322e3030312d31332e333436563233322e31323763302d372e33373120352e3337332d31332e3334362031322e3030312d31332e33343620362e36323820302031322e30303120352e3937352031322e3030312031332e333436763336302e3334377a273e3c616e696d6174655472616e73666f726d206174747269627574654e616d653d277472616e73666f726d2720617474726962757465547970653d27584d4c2720747970653d277472616e736c61746527206475723d273173272076616c7565733d27302c313230303b302c2d313230303b2720726570656174436f756e743d27696e646566696e697465272f3e3c2f706174683e3c706174682066696c6c3d27234631463246322720643d274d3839332e383138203330372e343435633020372e3337312d352e3337332031332e3334362d31322e3030312031332e3334362d362e36323820302d31322e3030312d352e3937352d31322e3030312d31332e333436562d35322e39303163302d372e33373120352e3337332d31332e3334362031322e3030312d31332e33343620362e36323820302031322e30303120352e3937352031322e3030312031332e333436763336302e3334367a273e3c616e696d6174655472616e73666f726d206174747269627574654e616d653d277472616e73666f726d2720617474726962757465547970653d27584d4c2720747970653d277472616e736c61746527206475723d27322e3573272076616c7565733d27302c313230303b302c2d313230303b2720726570656174436f756e743d27696e646566696e697465272f3e3c2f706174683e3c706174682066696c6c3d27233844433633462720643d274d313638322e38393720313035332e393132633020362e3131362d352e3337332031312e3037342d31322e3030312031312e3037342d362e36323820302d31322e3030312d342e3935382d31322e3030312d31312e303734563735342e39303863302d362e31313620352e3337332d31312e3037342031322e3030312d31312e30373420362e36323820302031322e30303120342e3935382031322e3030312031312e303734763239392e3030347a273e3c616e696d6174655472616e73666f726d206174747269627574654e616d653d277472616e73666f726d2720617474726962757465547970653d27584d4c2720747970653d277472616e736c61746527206475723d27312e3573272076616c7565733d27302c313230303b302c2d313230303b2720726570656174436f756e743d27696e646566696e697465272f3e3c2f706174683e3c706174682066696c6c3d27233844433633462720643d274d313037352e33333720313139322e3132633020392e3235362d332e3335382031362e37362d372e3530312031362e37362d342e31343320302d372e3530312d372e3530342d372e3530312d31362e3736563733392e35393263302d392e32353620332e3335382d31362e373620372e3530312d31362e373620342e313432203020372e35303120372e35303420372e3530312031362e3736763435322e3532387a273e3c616e696d6174655472616e73666f726d206174747269627574654e616d653d277472616e73666f726d2720617474726962757465547970653d27584d4c2720747970653d277472616e736c61746527206475723d27312e323573272076616c7565733d27302c313230303b302c2d313230303b2720726570656174436f756e743d27696e646566696e697465272f3e3c2f706174683e3c706174682066696c6c3d27234631463246322720643d274d313139382e32353520313033302e3331633020352e3832382d332e3938382031302e3535332d382e3930372031302e3535332d342e39313920302d382e3930372d342e3732352d382e3930372d31302e353533563734352e33383563302d352e38323820332e3938382d31302e35353320382e3930372d31302e35353320342e393139203020382e39303720342e37323520382e3930372031302e353533763238342e3932357a273e3c616e696d6174655472616e73666f726d206174747269627574654e616d653d277472616e73666f726d2720617474726962757465547970653d27584d4c2720747970653d277472616e736c61746527206475723d273373272076616c7565733d27302c313230303b302c2d313230303b2720726570656174436f756e743d27696e646566696e697465272f3e3c2f706174683e3c706174682066696c6c3d27234631463246322720643d274d3931312e303720313135312e383535633020342e30352d322e33353120372e3333332d352e323520372e3333332d322e3920302d352e3235312d332e3238332d352e3235312d372e333333563935332e38373463302d342e303520322e3335312d372e33333320352e3235312d372e33333320322e39203020352e323520332e32383320352e323520372e333333763139372e3938317a273e3c616e696d6174655472616e73666f726d206174747269627574654e616d653d277472616e73666f726d2720617474726962757465547970653d27584d4c2720747970653d277472616e736c61746527206475723d273273272076616c7565733d27302c313230303b302c2d313230303b2720726570656174436f756e743d27696e646566696e697465272f3e3c2f706174683e3c706174682066696c6c3d27233030414545462720643d274d3833332e303632203735322e383135633020342e30352d322e33353120372e3333332d352e32353120372e3333332d322e3920302d352e3235312d332e3238332d352e3235312d372e333333563535342e38333463302d342e303520322e3335312d372e33333320352e3235312d372e33333320322e39203020352e32353120332e32383320352e32353120372e333333763139372e3938317a273e3c616e696d6174655472616e73666f726d206174747269627574654e616d653d277472616e73666f726d2720617474726962757465547970653d27584d4c2720747970653d277472616e736c61746527206475723d273173272076616c7565733d27302c313230303b302c2d313230303b2720726570656174436f756e743d27696e646566696e697465272f3e3c2f706174683e3c706174682066696c6c3d27234332423539422720643d274d313135342e303934203233302e373633633020342e30352d322e33353120372e3333332d352e323520372e3333332d322e3920302d352e32352d332e3238332d352e32352d372e3333335633322e37383263302d342e303520322e3335312d372e33333320352e32352d372e33333320322e39203020352e323520332e32383320352e323520372e333333763139372e3938317a273e3c616e696d6174655472616e73666f726d206174747269627574654e616d653d277472616e73666f726d2720617474726962757465547970653d27584d4c2720747970653d277472616e736c61746527206475723d27322e3573272076616c7565733d27302c313230303b302c2d313230303b2720726570656174436f756e743d27696e646566696e697465272f3e3c2f706174683e3c706174682066696c6c3d27233030414545462720643d274d3231392e35303120313132372e383732633020362e3632382d332e3639342031322e3030312d382e3235312031322e3030312d342e35353720302d382e3235312d352e3337332d382e3235312d31322e303031563830332e383463302d362e36323820332e3639342d31322e30303120382e3235312d31322e30303120342e353537203020382e32353120352e33373320382e3235312031322e303031763332342e3033327a273e3c616e696d6174655472616e73666f726d206174747269627574654e616d653d277472616e73666f726d2720617474726962757465547970653d27584d4c2720747970653d277472616e736c61746527206475723d27312e3573272076616c7565733d27302c313230303b302c2d313230303b2720726570656174436f756e743d27696e646566696e697465272f3e3c2f706174683e3c706174682066696c6c3d27234631463246322720643d274d3639322e303438203436342e383036633020362e3632382d332e3639342031322e3030312d382e3235312031322e3030312d342e35353720302d382e3235312d352e3337332d382e3235312d31322e303031563134302e37373363302d362e36323820332e3639342d31322e30303120382e3235312d31322e30303120342e353537203020382e32353120352e33373320382e3235312031322e303031763332342e3033337a273e3c616e696d6174655472616e73666f726d206174747269627574654e616d653d277472616e73666f726d2720617474726962757465547970653d27584d4c2720747970653d277472616e736c61746527206475723d27312e323573272076616c7565733d27302c313230303b302c2d313230303b2720726570656174436f756e743d27696e646566696e697465272f3e3c2f706174683e3c706174682066696c6c3d27234631463246322720643d274d313734352e313534203637342e383237633020362e3632382d332e3639342031322e3030312d382e3235312031322e3030312d342e35353720302d382e3235312d352e3337332d382e3235312d31322e303031563335302e37393463302d362e36323820332e3639342d31322e30303120382e3235312d31322e30303120342e353537203020382e32353120352e33373320382e3235312031322e303031763332342e3033337a273e3c616e696d6174655472616e73666f726d206174747269627574654e616d653d277472616e73666f726d2720617474726962757465547970653d27584d4c2720747970653d277472616e736c61746527206475723d273373272076616c7565733d27302c313230303b302c2d313230303b2720726570656174436f756e743d27696e646566696e697465272f3e3c2f706174683e3c706174682066696c6c3d27233844433633462720643d274d3439322e353238203631342e383231633020362e3632382d332e3639342031322e3030312d382e3235312031322e3030312d342e35353720302d382e3235312d352e3337332d382e3235312d31322e303031563239302e37383863302d362e36323820332e3639342d31322e30303120382e3235312d31322e30303120342e353537203020382e32353120352e33373320382e3235312031322e303031763332342e3033337a273e3c616e696d6174655472616e73666f726d206174747269627574654e616d653d277472616e73666f726d2720617474726962757465547970653d27584d4c2720747970653d277472616e736c61746527206475723d273273272076616c7565733d27302c313230303b302c2d313230303b2720726570656174436f756e743d27696e646566696e697465272f3e3c2f706174683e3c706174682066696c6c3d27233844433633462720643d274d3536372e353336203134382e303135633020342e3238352d332e36393420372e3735392d382e32353120372e3735392d342e35353720302d382e3235312d332e3437342d382e3235312d372e373539562d36312e34383863302d342e32383520332e3639342d372e37353920382e3235312d372e37353920342e353537203020382e32353120332e34373420382e32353120372e373539763230392e3530337a273e3c616e696d6174655472616e73666f726d206174747269627574654e616d653d277472616e73666f726d2720617474726962757465547970653d27584d4c2720747970653d277472616e736c61746527206475723d273173272076616c7565733d27302c313230303b302c2d313230303b2720726570656174436f756e743d27696e646566696e697465272f3e3c2f706174683e3c706174682066696c6c3d27234631463246322720643d274d36342e353938203135332e39313261372e38363320372e3836332030203020312d372e38363320372e38363320372e38363320372e3836332030203020312d372e3836332d372e383633562d35382e33383561372e38363320372e38363320302030203120372e3836332d372e38363320372e38363320372e38363320302030203120372e38363320372e383633763231322e3239377a273e3c616e696d6174655472616e73666f726d206174747269627574654e616d653d277472616e73666f726d2720617474726962757465547970653d27584d4c2720747970653d277472616e736c61746527206475723d27322e3573272076616c7565733d27302c313230303b302c2d313230303b2720726570656174436f756e743d27696e646566696e697465272f3e3c2f706174683e3c706174682066696c6c3d27234631354132392720643d274d3331392e353937203238352e393236633020362d342e31382031302e3836332d392e3333372031302e383633732d392e3333372d342e3836342d392e3333372d31302e383633562d372e333863302d3620342e31382d31302e38363320392e3333372d31302e38363373392e33333720342e38363420392e3333372031302e383633763239332e3330367a273e3c616e696d6174655472616e73666f726d206174747269627574654e616d653d277472616e73666f726d2720617474726962757465547970653d27584d4c2720747970653d277472616e736c61746527206475723d27312e3573272076616c7565733d27302c313230303b302c2d313230303b2720726570656174436f756e743d27696e646566696e697465272f3e3c2f706174683e3c706174682066696c6c3d27234631463246322720643d274d313536372e37343820313137342e30313561372e38363320372e3836332030203020312d372e38363320372e38363320372e38363320372e3836332030203020312d372e3836332d372e383633563936312e37313761372e38363320372e38363320302030203120372e3836332d372e38363320372e38363320372e38363320302030203120372e38363320372e383633763231322e3239387a273e3c616e696d6174655472616e73666f726d206174747269627574654e616d653d277472616e73666f726d2720617474726962757465547970653d27584d4c2720747970653d277472616e736c61746527206475723d27312e323573272076616c7565733d27302c313230303b302c2d313230303b2720726570656174436f756e743d27696e646566696e697465272f3e3c2f706174683e3c706174682066696c6c3d27233844433633462720643d274d313432362e373038203235352e353039633020362e3232382d342e31382031312e3237372d392e3333372031312e323737732d392e3333372d352e3034392d392e3333372d31312e323737562d34382e393763302d362e32323820342e31382d31312e32373720392e3333372d31312e32373773392e33333720352e30343920392e3333372031312e323737763330342e3437397a273e3c616e696d6174655472616e73666f726d206174747269627574654e616d653d277472616e73666f726d2720617474726962757465547970653d27584d4c2720747970653d277472616e736c61746527206475723d273373272076616c7565733d27302c313230303b302c2d313230303b2720726570656174436f756e743d27696e646566696e697465272f3e3c2f706174683e3c706174682066696c6c3d27234631463246322720643d274d313333392e37323520313232322e30313961372e38363320372e3836332030203020312d372e38363320372e38363320372e38363320372e3836332030203020312d372e3836332d372e383633762d3231322e32393761372e38363320372e38363320302030203120372e3836332d372e38363320372e38363320372e38363320302030203120372e38363320372e383633763231322e3239377a273e3c616e696d6174655472616e73666f726d206174747269627574654e616d653d277472616e73666f726d2720617474726962757465547970653d27584d4c2720747970653d277472616e736c61746527206475723d273273272076616c7565733d27302c313230303b302c2d313230303b2720726570656174436f756e743d27696e646566696e697465272f3e3c2f706174683e3c706174682066696c6c3d27234631354132392720643d274d313436302e363934203838352e383832633020362e3035372d342e36322031302e3936372d31302e33322031302e393637732d31302e33322d342e39312d31302e33322d31302e393637563538392e37383463302d362e30353720342e36322d31302e3936372031302e33322d31302e3936377331302e333220342e39312031302e33322031302e393637763239362e3039387a273e3c616e696d6174655472616e73666f726d206174747269627574654e616d653d277472616e73666f726d2720617474726962757465547970653d27584d4c2720747970653d277472616e736c61746527206475723d273173272076616c7565733d27302c313230303b302c2d313230303b2720726570656174436f756e743d27696e646566696e697465272f3e3c2f706174683e3c706174682066696c6c3d27233844433633462720643d274d313735312e373233203230312e383134633020362e3035372d342e36322031302e3936372d31302e33322031302e393637732d31302e33322d342e39312d31302e33322d31302e393637562d39342e32383563302d362e30353720342e36322d31302e3936372031302e33322d31302e3936377331302e333220342e39312031302e33322031302e393637763239362e3039397a273e3c616e696d6174655472616e73666f726d206174747269627574654e616d653d277472616e73666f726d2720617474726962757465547970653d27584d4c2720747970653d277472616e736c61746527206475723d27322e3573272076616c7565733d27302c313230303b302c2d313230303b2720726570656174436f756e743d27696e646566696e697465272f3e3c2f706174683e3c706174682066696c6c3d27234631463246322720643d274d3138303020313236362e3932633020362e3035372d342e36322031302e3936372d31302e33322031302e393637732d31302e33322d342e39312d31302e33322d31302e393637563937302e38323263302d362e30353720342e36322d31302e3936372031302e33322d31302e3936377331302e333220342e39312031302e33322031302e393637763239362e3039387a273e3c616e696d6174655472616e73666f726d206174747269627574654e616d653d277472616e73666f726d2720617474726962757465547970653d27584d4c2720747970653d277472616e736c61746527206475723d27312e3573272076616c7565733d27302c313230303b302c2d313230303b2720726570656174436f756e743d27696e646566696e697465272f3e3c2f706174683e3c706174682066696c6c3d27233030414545462720643d274d313630372e393831203430382e383334633020362e3035372d342e36322031302e3936372d31302e33322031302e393637732d31302e33322d342e39312d31302e33322d31302e393637563131322e37333663302d362e30353720342e36322d31302e3936372031302e33322d31302e3936377331302e333220342e39312031302e33322031302e393637763239362e3039387a273e3c616e696d6174655472616e73666f726d206174747269627574654e616d653d277472616e73666f726d2720617474726962757465547970653d27584d4c2720747970653d277472616e736c61746527206475723d27312e323573272076616c7565733d27302c313230303b302c2d313230303b2720726570656174436f756e743d27696e646566696e697465272f3e3c2f706174683e3c2f673e3c73766720786d6c6e733d27687474703a2f2f7777772e77332e6f72672f323030302f737667272077696474683d273138303027206865696768743d2731323030272076696577426f783d27302030203138303020313230302720786d6c3a73706163653d277072657365727665273e3c706174682066696c6c3d27",
  "linkReferences": {},
  "deployedLinkReferences": {}
}