{
  "_format": "hh-sol-artifact-1",
  "contractName": "RegisterPortal",
  "sourceName": "contracts/RegisterPortal.sol",
  "abi": [
    {
      "inputs": [],
      "stateMutability": "payable",
      "type": "constructor"
    },
    {
      "anonymous": false,
      "inputs": [
        {
          "indexed": true,
          "internalType": "address",
          "name": "from",
          "type": "address"
        },
        {
          "indexed": false,
          "internalType": "uint256",
          "name": "timestamp",
          "type": "uint256"
        },
        {
          "indexed": false,
          "internalType": "string",
          "name": "message",
          "type": "string"
        }
      ],
      "name": "NewRegister",
      "type": "event"
    },
    {
      "inputs": [],
      "name": "getAllRegisters",
      "outputs": [
        {
          "components": [
            {
              "internalType": "address",
              "name": "registrant",
              "type": "address"
            },
            {
              "internalType": "string",
              "name": "message",
              "type": "string"
            },
            {
              "internalType": "uint256",
              "name": "timestamp",
              "type": "uint256"
            }
          ],
          "internalType": "struct RegisterPortal.Register[]",
          "name": "",
          "type": "tuple[]"
        }
      ],
      "stateMutability": "view",
      "type": "function"
    },
    {
      "inputs": [],
      "name": "getTotalRegisters",
      "outputs": [
        {
          "internalType": "uint256",
          "name": "",
          "type": "uint256"
        }
      ],
      "stateMutability": "view",
      "type": "function"
    },
    {
      "inputs": [
        {
          "internalType": "address",
          "name": "",
          "type": "address"
        }
      ],
      "name": "lastWavedAt",
      "outputs": [
        {
          "internalType": "uint256",
          "name": "",
          "type": "uint256"
        }
      ],
      "stateMutability": "view",
      "type": "function"
    },
    {
      "inputs": [
        {
          "internalType": "string",
          "name": "_message",
          "type": "string"
        }
      ],
      "name": "register",
      "outputs": [],
      "stateMutability": "nonpayable",
      "type": "function"
    }
  ],
  "bytecode": "0x60806040526200004f6040518060400160405280601e81526020017f534d4152544552205448414e20594f55522041564552414745204552432e00008152506200007760201b620006cd1760201c565b606444426200005f9190620001c4565b6200006b919062000261565b60018190555062000308565b62000117816040516024016200008e919062000184565b6040516020818303038152906040527f41304fac000000000000000000000000000000000000000000000000000000007bffffffffffffffffffffffffffffffffffffffffffffffffffffffff19166020820180517bffffffffffffffffffffffffffffffffffffffffffffffffffffffff83818316178352505050506200011a60201b60201c565b50565b60008151905060006a636f6e736f6c652e6c6f679050602083016000808483855afa5050505050565b60006200015082620001a8565b6200015c8185620001b3565b93506200016e8185602086016200022b565b6200017981620002f7565b840191505092915050565b60006020820190508181036000830152620001a0818462000143565b905092915050565b600081519050919050565b600082825260208201905092915050565b6000620001d18262000221565b9150620001de8362000221565b9250827fffffffffffffffffffffffffffffffffffffffffffffffffffffffffffffffff0382111562000216576200021562000299565b5b828201905092915050565b6000819050919050565b60005b838110156200024b5780820151818401526020810190506200022e565b838111156200025b576000848401525b50505050565b60006200026e8262000221565b91506200027b8362000221565b9250826200028e576200028d620002c8565b5b828206905092915050565b7f4e487b7100000000000000000000000000000000000000000000000000000000600052601160045260246000fd5b7f4e487b7100000000000000000000000000000000000000000000000000000000600052601260045260246000fd5b6000601f19601f8301169050919050565b61118580620003186000396000f3fe608060405234801561001057600080fd5b506004361061004c5760003560e01c806362f99149146100515780639d81f5731461006f578063a42a46631461008d578063f2c298be146100bd575b600080fd5b6100596100d9565b6040516100669190610d13565b60405180910390f35b61007761022a565b6040516100849190610e17565b60405180910390f35b6100a760048036038101906100a291906109e7565b610275565b6040516100b49190610e17565b60405180910390f35b6100d760048036038101906100d29190610a10565b61028d565b005b60606002805480602002602001604051908101604052809291908181526020016000905b8282101561022157838290600052602060002090600302016040518060600160405290816000820160009054906101000a900473ffffffffffffffffffffffffffffffffffffffff1673ffffffffffffffffffffffffffffffffffffffff1673ffffffffffffffffffffffffffffffffffffffff16815260200160018201805461018690611008565b80601f01602080910402602001604051908101604052809291908181526020018280546101b290611008565b80156101ff5780601f106101d4576101008083540402835291602001916101ff565b820191906000526020600020905b8154815290600101906020018083116101e257829003601f168201915b50505050508152602001600282015481525050815260200190600101906100fd565b50505050905090565b600061026d6040518060400160405280601b81526020017f5765206861766520256420746f74616c20726567697374657273210000000000815250600054610766565b600054905090565b60036020528060005260406000206000915090505481565b42610384600360003373ffffffffffffffffffffffffffffffffffffffff1673ffffffffffffffffffffffffffffffffffffffff168152602001908152602001600020546102db9190610f34565b1061031b576040517f08c379a000000000000000000000000000000000000000000000000000000000815260040161031290610df7565b60405180910390fd5b42600360003373ffffffffffffffffffffffffffffffffffffffff1673ffffffffffffffffffffffffffffffffffffffff1681526020019081526020016000208190555060016000808282546103719190610f34565b925050819055506103b76040518060400160405280601281526020017f257320686173207265676973746572656421000000000000000000000000000081525033610802565b600260405180606001604052803373ffffffffffffffffffffffffffffffffffffffff16815260200183815260200142815250908060018154018082558091505060019003906000526020600020906003020160009091909190915060008201518160000160006101000a81548173ffffffffffffffffffffffffffffffffffffffff021916908373ffffffffffffffffffffffffffffffffffffffff16021790555060208201518160010190805190602001906104769291906108c7565b50604082015181600201555050606460015442446104949190610f34565b61049e9190610f34565b6104a8919061103a565b6001819055506104ef6040518060400160405280601681526020017f52616e646f6d20232067656e6572617465643a20256400000000000000000000815250600154610766565b60326001541161063b576105386040518060400160405280600781526020017f257320776f6e210000000000000000000000000000000000000000000000000081525033610802565b600067016345785d8a0000905047811115610588576040517f08c379a000000000000000000000000000000000000000000000000000000000815260040161057f90610db7565b60405180910390fd5b60003373ffffffffffffffffffffffffffffffffffffffff16826040516105ae90610cfe565b60006040518083038185875af1925050503d80600081146105eb576040519150601f19603f3d011682016040523d82523d6000602084013e6105f0565b606091505b5050905080610634576040517f08c379a000000000000000000000000000000000000000000000000000000000815260040161062b90610dd7565b60405180910390fd5b505061067a565b6106796040518060400160405280601081526020017f506c656173652074727920616761696e000000000000000000000000000000008152506106cd565b5b3373ffffffffffffffffffffffffffffffffffffffff167fd9e57cf452a7d2bb0b0072f9a9f0d12f51e50b6501392a1d2f930a0c400239b542836040516106c2929190610e32565b60405180910390a250565b610763816040516024016106e19190610d35565b6040516020818303038152906040527f41304fac000000000000000000000000000000000000000000000000000000007bffffffffffffffffffffffffffffffffffffffffffffffffffffffff19166020820180517bffffffffffffffffffffffffffffffffffffffffffffffffffffffff838183161783525050505061089e565b50565b6107fe828260405160240161077c929190610d87565b6040516020818303038152906040527f9710a9d0000000000000000000000000000000000000000000000000000000007bffffffffffffffffffffffffffffffffffffffffffffffffffffffff19166020820180517bffffffffffffffffffffffffffffffffffffffffffffffffffffffff838183161783525050505061089e565b5050565b61089a8282604051602401610818929190610d57565b6040516020818303038152906040527f319af333000000000000000000000000000000000000000000000000000000007bffffffffffffffffffffffffffffffffffffffffffffffffffffffff19166020820180517bffffffffffffffffffffffffffffffffffffffffffffffffffffffff838183161783525050505061089e565b5050565b60008151905060006a636f6e736f6c652e6c6f679050602083016000808483855afa5050505050565b8280546108d390611008565b90600052602060002090601f0160209004810192826108f5576000855561093c565b82601f1061090e57805160ff191683800117855561093c565b8280016001018555821561093c579182015b8281111561093b578251825591602001919060010190610920565b5b509050610949919061094d565b5090565b5b8082111561096657600081600090555060010161094e565b5090565b600061097d61097884610e93565b610e62565b90508281526020810184848401111561099557600080fd5b6109a0848285610fc6565b509392505050565b6000813590506109b781611138565b92915050565b600082601f8301126109ce57600080fd5b81356109de84826020860161096a565b91505092915050565b6000602082840312156109f957600080fd5b6000610a07848285016109a8565b91505092915050565b600060208284031215610a2257600080fd5b600082013567ffffffffffffffff811115610a3c57600080fd5b610a48848285016109bd565b91505092915050565b6000610a5d8383610c90565b905092915050565b610a6e81610f8a565b82525050565b610a7d81610f8a565b82525050565b6000610a8e82610ed3565b610a988185610ef6565b935083602082028501610aaa85610ec3565b8060005b85811015610ae65784840389528151610ac78582610a51565b9450610ad283610ee9565b925060208a01995050600181019050610aae565b50829750879550505050505092915050565b6000610b0382610ede565b610b0d8185610f12565b9350610b1d818560208601610fd5565b610b2681611127565b840191505092915050565b6000610b3c82610ede565b610b468185610f23565b9350610b56818560208601610fd5565b610b5f81611127565b840191505092915050565b6000610b77603483610f23565b91507f547279696e6720746f207769746864726177206d6f7265206d6f6e657920746860008301527f616e2074686520636f6e7472616374206861732e0000000000000000000000006020830152604082019050919050565b6000610bdd602783610f23565b91507f4661696c656420746f207769746864726177206d6f6e65792066726f6d20636f60008301527f6e74726163742e000000000000000000000000000000000000000000000000006020830152604082019050919050565b6000610c43600083610f07565b9150600082019050919050565b6000610c5d600e83610f23565b91507f576169742031356d696e757465730000000000000000000000000000000000006000830152602082019050919050565b6000606083016000830151610ca86000860182610a65565b5060208301518482036020860152610cc08282610af8565b9150506040830151610cd56040860182610ce0565b508091505092915050565b610ce981610fbc565b82525050565b610cf881610fbc565b82525050565b6000610d0982610c36565b9150819050919050565b60006020820190508181036000830152610d2d8184610a83565b905092915050565b60006020820190508181036000830152610d4f8184610b31565b905092915050565b60006040820190508181036000830152610d718185610b31565b9050610d806020830184610a74565b9392505050565b60006040820190508181036000830152610da18185610b31565b9050610db06020830184610cef565b9392505050565b60006020820190508181036000830152610dd081610b6a565b9050919050565b60006020820190508181036000830152610df081610bd0565b9050919050565b60006020820190508181036000830152610e1081610c50565b9050919050565b6000602082019050610e2c6000830184610cef565b92915050565b6000604082019050610e476000830185610cef565b8181036020830152610e598184610b31565b90509392505050565b6000604051905081810181811067ffffffffffffffff82111715610e8957610e886110f8565b5b8060405250919050565b600067ffffffffffffffff821115610eae57610ead6110f8565b5b601f19601f8301169050602081019050919050565b6000819050602082019050919050565b600081519050919050565b600081519050919050565b6000602082019050919050565b600082825260208201905092915050565b600081905092915050565b600082825260208201905092915050565b600082825260208201905092915050565b6000610f3f82610fbc565b9150610f4a83610fbc565b9250827fffffffffffffffffffffffffffffffffffffffffffffffffffffffffffffffff03821115610f7f57610f7e61106b565b5b828201905092915050565b6000610f9582610f9c565b9050919050565b600073ffffffffffffffffffffffffffffffffffffffff82169050919050565b6000819050919050565b82818337600083830152505050565b60005b83811015610ff3578082015181840152602081019050610fd8565b83811115611002576000848401525b50505050565b6000600282049050600182168061102057607f821691505b60208210811415611034576110336110c9565b5b50919050565b600061104582610fbc565b915061105083610fbc565b9250826110605761105f61109a565b5b828206905092915050565b7f4e487b7100000000000000000000000000000000000000000000000000000000600052601160045260246000fd5b7f4e487b7100000000000000000000000000000000000000000000000000000000600052601260045260246000fd5b7f4e487b7100000000000000000000000000000000000000000000000000000000600052602260045260246000fd5b7f4e487b7100000000000000000000000000000000000000000000000000000000600052604160045260246000fd5b6000601f19601f8301169050919050565b61114181610f8a565b811461114c57600080fd5b5056fea26469706673582212206820e70f7c3d6408fb2ee70748814516ae32f8f4fec4ff4368d4d76d51cec16064736f6c63430008000033",
  "linkReferences": {},
  "deployedLinkReferences": {}
}